:101C0000DF92EF92FF920F931F93CF93DF9300D059
:101C100000D0CDB7DEB7D89A1AE08FEF0E94381601
:101C20001150D9F740E050E0BA0180E40E94F91663
:101C3000813009F084C04AEA51E060E070E088E455
:101C40000E94F916813079F58E010F5F1F4F7801E0
:101C500024E0D22ED00E8FEF0E943816F701819328
:101C60007F01DE12F8CF8B81813009F068C08C8152
:101C70008A3A09F064C090E1E92E97E2F92E40E03B
:101C800050E060E070E489EE0E94F916882379F153
:101C900087EC90E00197F1F700C0000091E0E91AAD
:101CA000F10869F74CC040E050E0BA0189EE0E94AB
:101CB000F916823018F011E001E402C012E009EEDA
:101CC00080E1E82E87E2F82E40E050E0BA01802F54
:101CD0000E94F916882351F187EC90E00197F1F703
:101CE00000C0000091E0E91AF10871F728C040E057
:101CF00050E0BA018AE70E94F916811120C08FEFE7
:101D0000B7D7F80181938F01DE12F9CF898186FD63
:101D100002C014E001C01CE01093CD00D89A8FEFF0
:101D2000A7D781E0112369F080E00BC040E052E0CA
:101D300060E070E080E50E94F916882369F310E006
:101D4000EBCF0F900F900F900F90DF91CF911F91DD
:101D50000F91FF90EF90DF900895CF92DF92EF9276
:101D6000FF920F931F93CF93DF937C0169018091C2
:101D7000CD0083FD07C089E0440F551F661F771F04
:101D80008A95D1F781E50E94F916882311F0C1E008
:101D90002BC0C0E4DCE98FEF6BD78F3F19F421979C
:101DA000D1F7F5CF8E3F99F7C2E0D2E0C01BD10B3F
:101DB000CC19DD09C114D10421F4E114F10439F482
:101DC0000EC08FEF55D781E0C81AD108F3CF8FEF3F
:101DD0004FD7F70181937F0101501109C1F78FEFB0
:101DE00047D72197E1F7C0E0D89A8FEF41D78C2FE2
:101DF000DF91CF911F910F91FF90EF90DF90CF90E7
:101E000008954F925F926F927F928F929F92AF92BE
:101E1000BF92DF92EF92FF920F931F93CF93DF93C6
:101E2000CDB7DEB7E0970FB6F894DEBF0FBECDBFDB
:101E30001092CF001092CE00009709F44EC17C01A1
:101E4000DFDE80FD4CC140E050E0BA01CE010196DA
:101E50000E94B018813099F500E110E02EEB31E0DE
:101E600040E050E0BA01CE01019677DF882311F0FF
:101E700081E036C18D81811102C087E031C18C853E
:101E80008B84912CA12CB12C540199248824B82A3C
:101E9000898595018401082BD901C8018A84912C78
:101EA000982C8824A12CB12C882A992AAA2ABB2AEA
:101EB000B501A401CE0101960E94B01803C0812C87
:101EC000912C54018330A1F28111D7CF04E210E0AC
:101ED0002DE030E0B501A401CE0101963EDF811175
:101EE000C7CF2B8530E0322F22278A85282B21155A
:101EF000310519F040E050E018C08B8D2A8D422F3B
:101F000050E060E070E0BA0155274427782B888DB7
:101F1000482B898D90E0982F8827A0E0B0E09A01A7
:101F2000AB01282B392B4A2B5B2BAC81B0E00E94F4
:101F3000DE192B013C016B8170E0762F66278A81C8
:101F4000682B9B0140E050E029A73AA74BA75CA76C
:101F5000820E931EA41EB51ED7011A968D929D92D5
:101F6000AD92BC921D97D9801296DC9212974E8149
:101F700050E0542F44272D81422B15965C934E93AD
:101F80001497288530E0322F2227EF812E2B211540
:101F9000310521F0890120E030E022C0FF89EE897F
:101FA0000E2F10E020E030E09801112700273F2B92
:101FB000EC89C901B8016E2B6DA77EA78FA798ABDE
:101FC000ED89AE2FB0E0FA2FEE27CF01A0E0B0E010
:101FD0000DA51EA52FA538A9082B192B2A2B3B2BA5
:101FE00074E0569547957A95E1F7BA0180E090E064
:101FF0006DA37EA38FA398A7D901C80149A55AA5AF
:102000006BA57CA5841B950BA60BB70B84199509B2
:10201000A609B709BC01CD010DA11EA12FA138A5AC
:10202000601B710B820B930B2D2D30E040E050E0D4
:102030000E94FB19DA01C9010296A11DB11DF70129
:1020400086839783A087B187873FFFE09F07A1051D
:10205000B10508F412CF873F9F4FA105B10510F0DD
:1020600083E001C082E0D7018C938330B1F42BA1CF
:102070008AA190E0A0E0B0E0DC0199278827B22B8C
:1020800028A1822B49A150E0542F442760E070E042
:10209000842B952BA62BB72B06C0D301C201880D2C
:1020A000991DAA1DBB1DF70186879787A08BB18B51
:1020B0000DA11EA12FA138A5800E911EA21EB31E38
:1020C000480C591C6A1C7B1C428A538A648A758A94
:1020D0001182F092CF00E092CE0080E001C082E059
:1020E000E0960FB6F894DEBF0FBECDBFDF91CF9163
:1020F0001F910F91FF90EF90DF90BF90AF909F9056
:102100008F907F906F905F904F9008950F931F93E3
:10211000CF93DF93CDB7DEB7EC970FB6F894DEBF61
:102120000FBECDBF0091CE001091CF00011511055B
:1021300009F453C0AC01F8011182CE01C1969CA3F1
:102140008BA3BE016F5F7F4F40970E9403198111DF
:1021500047C08981882309F442C08C8584FD3FC033
:102160008E8990E0982F88272D89822BA0E0B0E0FF
:10217000DC01992788274C8D50E0542F44272B8D64
:10218000422B60E070E0842B952BA62BB72BF80137
:10219000868F978FA0A3B1A328A18F8D90E0A0E098
:1021A000B0E0DC0199278827B22B2D8D822B4E8D34
:1021B00050E0542F442760E070E0842B952BA62B31
:1021C000B72B828F938FA48FB58F168A178A108EA4
:1021D000118E81E0818380E003C086E001C083E04E
:1021E000EC960FB6F894DEBF0FBECDBFDF91CF9156
:1021F0001F910F9108954F925F926F927F928F92ED
:102200009F92AF92BF92CF92DF92EF92FF920F9385
:102210001F93CF93DF934C016B015A01C091CE0005
:10222000D091CF00FA0111821082209709F49EC04C
:10223000898180FF9DC08A8D9B8DAC8DBD8D4E891F
:102240005F89688D798D841B950BA60BB70BA60152
:1022500060E070E084179507A607B70708F46C01E3
:102260003401412C32E0532EC114D10409F479C059
:102270008E899F89A88DB98DAC01BD0151706627EB
:102280007727452B462B472BD1F5FA80FA94AC01E2
:10229000BD0129E076956795579547952A95D1F721
:1022A000F422C1F4892B8A2B8B2B29F46E8D7F8D20
:1022B00088A199A105C06AA17BA18CA19DA146D648
:1022C000623071058105910508F44DC06AA37BA3B6
:1022D0008CA39DA36AA17BA18CA19DA1C5D56115ED
:1022E00071058105910509F43EC0DC01CB018F0D1C
:1022F000911DA11DB11D8EA39FA3A8A7B9A72E89CB
:102300003F893170C201821B930B76018C159D05AC
:1023100008F47C014EA15FA168A579A58114910400
:1023200011F0C30102C080E090E0870116DD811149
:102330001AC08E899F89A88DB98D8E0D9F1DA11DF4
:10234000B11D8E8B9F8BA88FB98F6E0C7F1CCE1802
:10235000DF08F50180819181E80EF91EF182E082AB
:1023600083CF80E006C0198281E003C086E001C00F
:1023700085E0DF91CF911F910F91FF90EF90DF905B
:10238000CF90BF90AF909F908F907F906F905F9015
:102390004F900895EF92FF920F931F93CF93DF9387
:1023A000CDB7DEB7AC970FB6F894DEBF0FBECDBF8A
:1023B0002091CE003091CF00232BB9F1AB017C01ED
:1023C000CE018196F70193838283BE016F5F7F4FB9
:1023D000C70119D7811126C08981882309F18C850D
:1023E00084FD02C084E022C04E8950E0542F44276F
:1023F0008D89482B60E070E0BA01552744270C8D89
:1024000010E0102F00278B8D082B20E030E0402BB0
:10241000512B622B732BF70144835583668377839B
:10242000C7014CD5833011F4DDCF86E0AC960FB6F2
:10243000F894DEBF0FBECDBFDF91CF911F910F91FA
:10244000FF90EF900895CF92DF92EF92FF920F935B
:102450001F93CF93DF93CDB7DEB7AC970FB6F89449
:10246000DEBF0FBECDBF2091CE003091CF00232B19
:1024700009F4CAC06B017C01CE018196D701139685
:102480009C938E9312976115710519F4C70116D5A7
:10249000C8C093E0D7011C964D915D916D917C91E0
:1024A0001F97411551056105710511F1F701208153
:1024B00031812F70332705E0220F331F0A95E1F792
:1024C00000E210E0CE01019648DC81119FC08981B5
:1024D000882309F49DC09C85853E21F08E3211F041
:1024E00093FF11C0C701CAD5982F882399F291C0D4
:1024F000892F992341F0F7011486158616861786D1
:10250000933009F088C08601075F1F4FD7011C96E2
:102510004D915D916D917C911F97452B462B472BDB
:1025200009F463C09E012F5F3F4FF6017196D901F8
:102530008D919D01803271F0853009F485EE0F5F39
:102540001F4FA80141505109DA018C930E171F0744
:1025500071F701C0F8018985803299F09EE290837D
:102560009F012E5F3F4F81838A85803231F02F5F3C
:102570003F4F82838B85803211F4F90102C083833F
:1025800034968C85D60118968C9328A18F8D90E077
:10259000A0E0B0E0DC0199278827B22B2D8D822B9B
:1025A0004E8D50E0542F442760E070E0482B592BAB
:1025B0006A2B7B2BD6014D935D936D937C93139780
:1025C0008A8D90E0982F8827298D822B15969C93D1
:1025D0008E931497888D90E0982F88272F89822BCF
:1025E00017969C938E9316978F01F8011082C7015E
:1025F00045D58330B1F4D7011C961D921D921D92D2
:102600001C921F9780E00DC086E00BC091E001C0D6
:1026100093E0892F70CF911104C08601075F1F4F8F
:10262000E4CFAC960FB6F894DEBF0FBECDBFDF91FE
:10263000CF911F910F91FF90EF90DF90CF90089571
:102640001092CC0096B32091CC00892F90E0809519
:1026500090958F709927822B8093CC0090B3209116
:10266000CC00892F90E08095909580769927822BD9
:102670008093CC008091CC008B7621F08091CC00AF
:10268000806803C08091CC008F778093CC00089540
:102690009091CC008923089581B38F7981BB87B352
:1026A000807F87BB82B3806682BB88B38F6088BB24
:1026B00085B7816085BF8BB780648BBF8091CC006C
:1026C00080688093CC00789408951F920F920FB683
:1026D0000F9211242F933F934F935F936F937F93A8
:1026E0008F939F93AF93BF93EF93FF93A9DFFF91D6
:1026F000EF91BF91AF919F918F917F916F915F917A
:102700004F913F912F910F900FBE0F901F901895F2
:102710008091CC0087FD94CF089582E482D2BC9A48
:102720008FE39CE90197F1F700C00000C798C498B7
:1027300086E09ED2C798C49881E09AD280E898D269
:10274000C49A08951F93CF93DF931F92CDB7DEB73E
:10275000182FC798C49AC49883E0998389D2998125
:10276000892F8F7185D2812F83D28FEF81D2C49A26
:102770000F90DF91CF911F910895EF92FF920F93E9
:102780001F93CF93DF9300D01F92CDB7DEB7F82E03
:102790008B01C798C49AC49883E04A835B8399836A
:1027A00067D29981892F8F7163D28F2D61D24A812F
:1027B000E42E5B81F52E0E0D1F1DE016F10631F0A3
:1027C0008FEF56D2F70181937F01F7CFC49A0F9014
:1027D0000F900F90DF91CF911F910F91FF90EF908D
:1027E00008951F93CF93DF9300D0CDB7DEB7182F96
:1027F000C798C49886E06A8399833AD2C79882E0E2
:1028000037D29981892F8F7133D2812F31D26A814A
:10281000862F2ED2C49A0F900F90DF91CF911F91E7
:102820000895EF92FF920F931F93CF93DF9300D001
:102830001F92CDB7DEB7F82E8B01C798C49886E0FB
:102840004A835B83998314D2C79882E011D299811D
:10285000892F8F710DD28F2D0BD24A81E42E5B818F
:10286000F52E0E0D1F1DE016F10629F0F7018191DE
:102870007F01FED1F8CFC49A0F900F900F90DF9197
:10288000CF911F910F91FF90EF900895FC0120814F
:10289000FB013081FC013083FB01208308950F93FD
:1028A0001F93CF93DF93282F30E02136310554F565
:1028B000693040F5C0916600D091670050E0405209
:1028C000510996E0949F8001959F100D112496E682
:1028D000699FB001112420E030E0F901E00FF11F01
:1028E000EC0FFD1FE491982F920FDB01A90FB11D92
:1028F000AF52BF4F9C91E92BEC932F5F3F4F263097
:10290000310559F7DF91CF911F910F9108950F93E2
:102910001F93CF93DF93C82FD62F8A01F8014191DF
:102920008F01442399F02C2F30E02136310514F427
:102930004A3039F42D2F30E0283031053CF4DF5F88
:10294000C0E06D2F8C2FABDFC95FE8CFDF91CF9157
:102950001F910F910895E62FE695E695E69596E688
:10296000E99FF0011124E80FF11DEF52FF4F208184
:10297000677081E090E0062E01C0880F0A94EAF7A4
:10298000822B80830895CF92DF92EF92FF920F9374
:102990001F93CF93DF93C82FD62F142F422F50E0D1
:1029A000461B510957FF03C0519541955109812F8D
:1029B00090E08C1B910997FF03C091958195910937
:1029C000EE24E3948417950714F0E12C06C0812FC0
:1029D000122F282F8C2FCD2FD82F1C1730F48D2F8E
:1029E000D22F282F8C2FC12F182FD12EDC1A822FF7
:1029F00090E08D1B910997FF03C0919581959109F6
:102A0000082FFD2CF694D21718F0CC24CA940EC0CF
:102A1000CC24C3940BC0EE2061F06C2F8D2F9BDF74
:102A2000F01AF7FE02C0DC0DFD0CCF5F1C1798F703
:102A300003C06D2F8C2FF3CFDF91CF911F910F919A
:102A4000FF90EF90DF90CF9008959398909810D1D9
:102A5000909A0895939A90980BD1909A089582E451
:102A6000E0D08FE19EE40197F1F700C0000081B350
:102A70008B6081BB919A9098919A939891988FE0EE
:102A800097E20197F1F700C00000919A8FE19EE470
:102A90000197F1F700C0000081EAD7DF80ECD5DFB5
:102AA00084EAD3DF86EAD1DF9FEF2DEE82E09150FA
:102AB00020408040E1F700C0000082EAC6DF8FE2DC
:102AC000C4DF81E8C2DF80E1C0DF8AEFBEDF80E9DA
:102AD000BCDF8FEABACFEF92FF920F931F93CF9391
:102AE000E12CF12CC0E08C2F806BAFDF80E0ADDFFC
:102AF00080E1ABDF00E010E0F801EE0DFF1DEF52CA
:102B0000FF4F8081A7DF0F5F1F4F06361105A1F72A
:102B1000CF5F86E6E80EF11CC83029F7CF911F91F0
:102B20000F91FF90EF90089520E030E080E090E07A
:102B3000FC01E20FF31FEF52FF4F10820196863621
:102B40009105B1F72A593F4F203383E0380771F7D9
:102B5000089508950F931F93CF93DF93D2E2D0642B
:102B60008D2F5FD0D09A05E110E04AD8C82F81FFA1
:102B700005C04CE650E061E080E0C9DEC0FF05C062
:102B80004FE650E061E088E2C2DEA5DFC11103C07C
:102B90000150110951F746E750E063E080E0B7DEED
:102BA0009ADFDF7C8D2F80643CD005E110E08091BE
:102BB00005049091060425D9D82FC13071F038F062
:102BC000C23041F0C73061F44DE950E00BC04FE72F
:102BD00050E008C048E850E005C042E950E002C0BB
:102BE00043EA50E064E080E092DE75DF01501109B5
:102BF00019F0D111DCCF09C0DD2339F04FEA50E0E4
:102C000065E080E084DE81E007C04DEB50E065E0E8
:102C100080E07DDE60DF80E0DF91CF911F910F913A
:102C2000089597B3906A97BBBE98B69ABE98C69A15
:102C3000982F929593709064482F417050E025E052
:102C4000440F551F2A95E1F7492B81FB222720F9D4
:102C500030E054E0220F331F5A95E1F7242B982FD0
:102C60009C70292B2DB986FB882780F98EB9089591
:102C70008FB9779BFECF8FB1089583B7856083BFEF
:102C800089B7816089BF7894109201041092020480
:102C9000109203041092040408951F920F920FB62D
:102CA0000F9211248F939F93AF93BF938091010450
:102CB00090910204A0910304B09104040196A11D17
:102CC000B11D8093010490930204A0930304B09378
:102CD0000404BF91AF919F918F910F900FBE0F9001
:102CE0001F901895FC01462F22818481281710F02F
:102CF0006A3041F41482858190E00196622F70E081
:102D000067D38583218195818481A681B781299F9D
:102D1000A00DB11D1124A80FB11D4C9384818F5FAC
:102D2000848308950F931F93CF93DF938C01EB015E
:102D30006991662319F0C801D5DFFACFDF91CF91F1
:102D40001F910F9108957F928F929F92AF92BF92A1
:102D5000CF92DF92EF92FF920F931F93CF93DF9367
:102D60001F92CDB7DEB78C01DC011596CC9015977C
:102D700011968C90A82CB12CD12C882059F1C60129
:102D800088199109B50124D38A0D9B1DB50120D363
:102D90007C01982E90E0712CFF24F8018281781636
:102DA000B8F48E9D90018F9D300D1124D801169698
:102DB000ED91FC911797E20FF31FE70DF11D408194
:102DC000692D892F99836BDD739499819A5FE5CF83
:102DD0008A94D3CF0F90DF91CF911F910F91FF90E5
:102DE000EF90DF90CF90BF90AF909F908F907F90AB
:102DF0000895FF920F931F93CF93DF93C82FD42F83
:102E0000152F062FF72E87FF08C040E050E0BA01CB
:102E100087E7EFDF823010F5CF77D89A8FEF28DF82
:102E2000D8988FEF25DF8C2F23DF8F2D21DF802F88
:102E30001FDF812F1DDF8D2F1BDFC03421F0C83431
:102E400021F487E803C085E901C081E011DFCAE011
:102E50008FEF0EDF87FF02C0C150D1F7DF91CF9116
:102E60001F910F91FF9008950F931F93E091CE0053
:102E7000F091CF009B01AC01225031094109510969
:102E800086819781A085B1850297A109B10928178C
:102E900039074A075B0760F4A281B0E08FD202894C
:102EA000138924893589600F711F821F931F03C006
:102EB00060E070E0CB011F910F9108950F931F9375
:102EC000CF93DF93DC01E091CE00F091CF0011961B
:102ED0001C921E9214966D917D918D919C911797E5
:102EE000613071058105910559F1068117812085B1
:102EF0003185601771078207930710F56115710519
:102F00008105910539F42081233021F46685778588
:102F100080899189ED01688779878A879B87611508
:102F200071058105910511F09FDF04C066857785E5
:102F3000808991896C877D878E879F8780E001C01B
:102F400081E0DF91CF911F910F910895CF92DF9291
:102F5000EF92FF920F931F93CF93DF9300D000D097
:102F6000CDB7DEB7E091CE00F091CF0062307105B1
:102F70008105910508F471C0C680D780E084F18492
:102F80006C157D058E059F0508F067C020812230F5
:102F900019F0233021F161C09B013327220F331F29
:102FA000BB27A92F982F872FC284D384E484F5846C
:102FB000AC01BD014C0D5D1D6E1D7F1D02E010E0DA
:102FC000CE0101960E94AD0E811147C06A8170E06A
:102FD000762F66278981682B80E090E042C09B01B4
:102FE0002F773327220F331F220F331FDC01CB0132
:102FF00017E0B695A795979587951A95D1F7C2844E
:10300000D384E484F584AC01BD014C0D5D1D6E1DBF
:103010007F1D04E010E0CE0101960E94AD0E8111EB
:103020001CC02C816B81862F90E0A0E0B0E0DC0119
:1030300099278827B22B2981AC01BD01422B8A81B7
:1030400090E0982F8827A0E0B0E0842B952BA62B4A
:10305000B72BBC01CD019F7004C061E070E080E03F
:1030600090E00F900F900F900F90DF91CF911F91F4
:103070000F91FF90EF90DF90CF900895CF92DF9265
:10308000EF92FF920F931F93CF93DF93EC01E090A9
:10309000CE00F090CF00088119810F5F1F4F11F40F
:1030A00083E055C04C855D856E857F854115510552
:1030B00061057105A9F3C8018F709927892B09F063
:1030C00041C04F5F5F4F6F4F7F4F4C875D876E876B
:1030D0007F87688579858A859B85F70161157105EC
:1030E0008105910531F48481958108171907C0F68F
:1030F00029C0228130E0A901415051099801E4E042
:1031000036952795EA95E1F724233523232BD1F42F
:103110001DDF6230710581059105C0F0F701C680A1
:10312000D780E084F1846C157D058E059F0508F03D
:10313000B7CF688779878A879B8796DE6C877D877C
:103140008E879F871983088380E001C081E0DF912B
:10315000CF911F910F91FF90EF90DF90CF90089546
:10316000CF92DF92EF92FF920F931F93CF93DF9353
:10317000EC016A017B0102E010E02EEF31E00E94D9
:10318000AD0E811132C0898190E0982F8827288167
:10319000822B85359A4A59F526E330E0B701A6011E
:1031A000CE010E94AD0E81110BC0898190E0982F55
:1031B00088272881822B8634914411F480E01AC03C
:1031C00002E010E022E530E0B701A601CE010E9446
:1031D000AD0E81110EC0898190E0982F882728813B
:1031E000822B8634914429F4E9CF83E003C082E046
:1031F00001C081E0DF91CF911F910F91FF90EF907F
:10320000DF90CF9008959F92AF92BF92CF92DF92BE
:10321000EF92FF920F931F93CF93DF93EC017B010B
:10322000242F952FDA018D91AD018032C9F3C22E82
:10323000D92E8F3219F4BFEFCB1ADB0A1C821D8204
:103240001E821F82F6018081813238F0E0E29E2EDC
:103250005701FBE0AF0EB11C65C0CE012FDED701D8
:103260001C92A0C090E080E028E031E0380FD60149
:10327000A80FB11D8C91813208F05FC0C30ED11C24
:1032800091E0813208F090E09387CE0117DE811142
:1032900074C0288139812F70332775E0220F331FC6
:1032A0007A95E1F74C855D856E857F8500E210E0BB
:1032B000C7010E94AD0E811169C0F701808188238A
:1032C00009F45DC0438543FD55C06A817B819B0144
:1032D000EA15FB0509F045C0FB018385811158C043
:1032E00044FF58C0D70155968C91559790E0982F80
:1032F000882754962C91822BA0E0B0E0DC0199271E
:103300008827F701438D50E0542F4427228D422B0C
:1033100060E070E0842B952BA62BB72B8C839D83CC
:10332000AE83BF83EA81FB81DF01CF010B96A81733
:10333000B90709F497CF9D92FACF8F3209F49ECF47
:103340008E3251F1921708F099CF4FE9480F4A3168
:1033500008F48052DF01A90FB11D8C939F5F832F6A
:1033600084CF8191D9015D919D0190E0851B9109E8
:1033700009F4AECFCE0182DE8ACF833099F4EA81A0
:10338000FB818385882331F083E00CC081E00AC093
:1033900080E008C084E006C0283009F06FCF98E0D4
:1033A0002BE0DDCFDF91CF911F910F91FF90EF9038
:1033B000DF90CF90BF90AF909F9008953ED0A59F93
:1033C000900DB49F900DA49F800D911D1124089520
:1033D00097FB072E16F4009406D077FD08D03CD05A
:1033E00007FC05D03EF4909581959F4F0895709508
:1033F00061957F4F0895A1E21A2EAA1BBB1BFD0108
:103400000DC0AA1FBB1FEE1FFF1FA217B307E407C3
:10341000F50720F0A21BB30BE40BF50B661F771F1B
:10342000881F991F1A9469F76095709580959095FB
:103430009B01AC01BD01CF010895A29FB001B39FD4
:10344000C001A39F700D811D1124911DB29F700DAD
:10345000811D1124911D0895AA1BBB1B51E107C0BA
:10346000AA1FBB1FA617B70710F0A61BB70B881F14
:10347000991F5A95A9F780959095BC01CD010895A3
:103480000F931F93CF93DF93869F8001879F100D2B
:10349000969F100D1124C8010DD0EC01009721F06A
:1034A000A80160E070E033D1CE01DF91CF911F9190
:1034B0000F910895CF93DF938230910510F482E04D
:1034C00090E0E0910904F0910A0420E030E0C0E0CF
:1034D000D0E0309711F14081518148175907C0F071
:1034E0004817590761F482819381209719F09B83D3
:1034F0008A832BC090930A048093090426C0211567
:10350000310519F04217530718F49A01BE01DF0183
:10351000EF010280F381E02DDCCF2115310509F1A7
:10352000281B390B2430310590F412968D919C9113
:1035300013976115710521F0FB019383828304C009
:1035400090930A0480930904FD01329644C0FD0162
:10355000E20FF31F81939193225031092D933C93F5
:103560003AC02091070430910804232B41F42091A4
:103570006200309163003093080420930704209187
:103580006000309161002115310541F42DB73EB73F
:103590004091640050916500241B350BE0910704B5
:1035A000F0910804E217F307A0F42E1B3F0B281735
:1035B000390778F0AC014E5F5F4F2417350748F0AC
:1035C0004E0F5F1F5093080440930704819391931B
:1035D00002C0E0E0F0E0CF01DF91CF9108950F93BA
:1035E0001F93CF93DF93009709F48CC0FC013297AF
:1035F000138212820091090410910A040115110529
:1036000081F420813181820F931F20910704309132
:1036100008042817390779F5F0930804E0930704A4
:1036200071C0D80140E050E0AE17BF0750F41296C9
:103630002D913C911397AD012115310509F1D90167
:10364000F3CF9D01DA013383228360817181860F7C
:10365000971F8217930769F4EC0128813981260F9F
:10366000371F2E5F3F4F318320838A819B81938355
:103670008283452B29F4F0930A04E093090442C0A5
:103680001396FC93EE931297ED01499159919E0187
:10369000240F351FE217F30771F480819181840FA5
:1036A000951F029611969C938E9382819381139617
:1036B0009C938E931297E0E0F0E0D80112968D91E2
:1036C0009C911397009719F0F8018C01F6CF8D911A
:1036D0009C9198012E5F3F4F820F931F209107040A
:1036E000309108042817390769F4309729F41092AB
:1036F0000A041092090402C0138212821093080473
:1037000000930704DF91CF911F910F910895DC0181
:0C37100001C06D9341505040E0F7089557
:1038000034C200000C9465134BC2000049C2000092
:1038100047C2000045C2000043C2000041C2000090
:103820003FC200003ACA00003BC2000039C200009B
:1038300037C2000035C2000033C2000031C20000B0
:103840002FC200002DC200002BC2000029C20000C0
:1038500027C20000000000000000005F0000000719
:10386000000700147F147F14242A7F2A12231308D0
:10387000646236495522500005030000001C2241B5
:10388000000041221C00082A1C2A0808083E0808DB
:1038900000503000000808080808006060000020A0
:1038A000100804023E5149453E00427F40004261FB
:1038B0005149462141454B311814127F1027454587
:1038C00045393C4A4949300171090503364949499E
:1038D00036064949291E00363600000056360000DB
:1038E0000008142241141414141441221408000274
:1038F00001510906324979413E7E1111117E7F49FD
:103900004949363E414141227F4141221C7F49497C
:1039100049417F090901013E414151327F080808B0
:103920007F00417F41002040413F017F0814224138
:103930007F404040407F0204027F7F0408107F3EAA
:103940004141413E7F090909063E4151215E7F09FF
:10395000192946464949493101017F01013F40404B
:10396000403F1F2040201F7F2018207F6314081431
:10397000630304780403615149454300007F4141DA
:10398000020408102041417F0000040201020440AB
:1039900040404040000102040020545454787F48C5
:1039A0004444383844444420384444487F385454CC
:1039B0005418087E090102081454543C7F0804047A
:1039C0007800447D40002040443D00007F102844A2
:1039D00000417F40007C041804787C080404783897
:1039E000444444387C14141408081414187C7C08CB
:1039F0000404084854545420043F4440203C4040B0
:103A0000207C1C2040201C3C4030403C4428102896
:103A1000440C5050503C4464544C4400083641001F
:103A200000007F0000004136080000000000000098
:103A30002E00000000000300030000000A1F0A1F00
:103A40000A002E2A6B2A3A000E2A1E083C2A3E2A19
:103A50002A2238080300000000001C220000000099
:103A6000221C00000000150E040E150008083E0878
:103A70000800600000000000080808080800200096
:103A8000000000002010080402003E222A223E000E
:103A9000043E000000003A2A2A2A2E002A2A2A2A56
:103AA0003E000E0808083E002E2A2A2A3A003E2A26
:103AB0002A2A3A00020202023E003E2A2A2A3E0038
:103AC0002E2A2A2A3E0014000000000034000000C4
:103AD000000008142200000014141414140022140E
:103AE0000800000006022A0A0E003E023A2A3E00A2
:103AF0003E1212123E003E2A2A2A36003E2222227E
:103B000022003E2222221C003E2A2A2A22003E0AAD
:103B10000A0A02003E222A2A3A003E0808083E000D
:103B2000223E22000000382020203E003E080814DB
:103B300022003E20202020003E0438043E003E04A7
:103B400008103E003E2222223E003E0A0A0A0E00D3
:103B50003E2272223E003E0A0A1A2E002E2A2A2AED
:103B60003A0002023E0202001E2020201E000E101B
:103B700020100E003E100E103E00221408142200E9
:103B80000204380402003A2A2A2A2E003E220000AB
:103B900000003F213F000000223E000000000C1EFC
:103BA0003C1E0C002020202020001C3E3E3E1C001D
:103BB0003C2424243C203E2424243C003C24242473
:103BC00024003C2424243E003C24342C2400083EC1
:103BD0000A0A00001C5454547C003E0404043C00B7
:103BE0003A00000000007A00000000003E081422A5
:103BF0000000023E000000003C043C043C003C0489
:103C000004043C003C2424243C007C2424243C0068
:103C10003C2424247C003C0404040000242C342490
:103C20000000043E242400003C2020203C000C1016
:103C300020100C003C203C203C00242418242400AC
:103C40001C5050507C0024342C240000083E2200DC
:103C500000001C2222221C00223E0800000001015C
:103C60000100000000000000000011241FBECFE58D
:103C7000D4E0DEBFCDBF10E0A0E6B0E0E4EDFDE3B0
:103C800002C005900D92AC3CB107D9F714E0ACEC42
:103C9000B0E001C01D92AB30B107E1F713D098C07E
:103CA000AFCD0895A69AAE9A90E485B3892785BBD7
:103CB0002FEF30E782E0215030408040E1F700C034
:103CC0000000F3CFCF93DF93CDB7DEB728970FB6C1
:103CD000F894DEBF0FBECDBFF89481E08BBF82E0C9
:103CE0008BBF7894BC9AA69AAE9A8C9A9498949822
:103CF0000E944C130E942F150E948D130E943D16A6
:103D00008AE08B8388E08A831D821E8261E070E0F6
:103D100088E090E0B5DB98878F83F12C8B819A81C6
:103D20002F2D30E0899FC0011124281739073CF45A
:103D300060E2CE0101960E947216F394EFCFCE019D
:103D4000019601D80E946B15C0900104D090020426
:103D5000E0900304F090040484E0C80ED11CE11C40
:103D6000F11C8091010490910204A0910304B09190
:103D70000404C816D906EA06FB0698F768E670E060
:103D8000CE0101960E949216CE0101960E94A316C2
:103D90000E946B150E9494158FB7F894C09001048F
:103DA000D0900204E0900304F09004048FBF0E94BE
:103DB000881380E60E944813882311F0AE9801C052
:103DC000AE9A82E00E944813882331F2AE9AC4CFA3
:043DD000F894FFCF95
:103DD40000000B0420002A3A313220004E44004EE9
:103DE4004F494E4954004D6F756E74696E67004DAE
:103DF4006F756E74204F4B004E6F74207265616452
:103E040079004469736B206572726F72004E6F2083
:103E14004653004D6F756E74206572726F72004D5B
:103E24006F756E74206661696C65642E004D6F75E4
:0C3E34006E742073756363657373210066
:0400000300003800C1
:00000001FF
