:101C0000DF92EF92FF920F931F93CF93DF9300D059
:101C100000D0CDB7DEB7D89A1AE08FEF0E94281611
:101C20001150D9F740E050E0BA0180E40E944D170E
:101C3000813009F083C04AEA51E060E070E088E456
:101C40000E944D17813071F58E010F5F1F4F780193
:101C500024E0D22ED00E8FEFFBD7F70181937F01C6
:101C6000DE12F9CF8B81813009F068C08C818A3A0D
:101C700009F064C090E1E92E97E2F92E40E050E0CF
:101C800060E070E489EE0E944D17882379F187ECBB
:101C900090E00197F1F700C0000091E0E91AF10827
:101CA00069F74CC040E050E0BA0189EE0E944D1740
:101CB000823018F011E001E402C012E009EE80E188
:101CC000E82E87E2F82E40E050E0BA01802F0E9413
:101CD0004D17882351F187EC90E00197F1F700C090
:101CE000000091E0E91AF10871F728C040E050E0E7
:101CF000BA018AE70E944D17811120C08FEFA8D743
:101D0000F80181938F01DE12F9CF898186FD02C02F
:101D100014E001C01CE010936B00D89A8FEF98D7A5
:101D200081E0112369F080E00BC040E052E060E008
:101D300070E080E50E944D17882369F310E0EBCF37
:101D40000F900F900F900F90DF91CF911F910F91F7
:101D5000FF90EF90DF900895CF92DF92EF92FF9285
:101D60000F931F93CF93DF937C01690180916B00E8
:101D700083FD07C089E0440F551F661F771F8A95B2
:101D8000D1F781E50E944D17882311F0C1E02BC0E7
:101D9000C0E4DCE98FEF5CD78F3F19F42197D1F7CE
:101DA000F5CF8E3F99F7C2E0D2E0C01BD10BCC1922
:101DB000DD09C114D10421F4E114F10439F40EC099
:101DC0008FEF46D781E0C81AD108F3CF8FEF40D705
:101DD000F70181937F0101501109C1F78FEF38D7C7
:101DE0002197E1F7C0E0D89A8FEF32D78C2FDF919F
:101DF000CF911F910F91FF90EF90DF90CF900895BA
:101E00004F925F926F927F928F929F92AF92BF920A
:101E1000DF92EF92FF920F931F93CF93DF93CDB793
:101E2000DEB7E0970FB6F894DEBF0FBECDBF1092BD
:101E30006D0010926C00009709F44EC17C01E0DE49
:101E400080FD4CC140E050E0BA01CE0101960E94F5
:101E50000419813099F500E110E02EEB31E040E00B
:101E600050E0BA01CE01019677DF882311F081E0BE
:101E700036C18D81811102C087E031C18C858B8490
:101E8000912CA12CB12C540199248824B82A89853D
:101E900095018401082BD901C8018A84912C982CC2
:101EA0008824A12CB12C882A992AAA2ABB2AB501F8
:101EB000A401CE0101960E94041903C0812C912C2B
:101EC00054018330A1F28111D7CF04E210E02DE05C
:101ED00030E0B501A401CE0101963EDF8111C7CFEC
:101EE0002B8530E0322F22278A85282B21153105BA
:101EF00019F040E050E018C08B8D2A8D422F50E041
:101F000060E070E0BA0155274427782B888D482B74
:101F1000898D90E0982F8827A0E0B0E09A01AB016E
:101F2000282B392B4A2B5B2BAC81B0E00E94321A54
:101F30002B013C016B8170E0762F66278A81682B2C
:101F40009B0140E050E029A73AA74BA75CA7820E6F
:101F5000931EA41EB51ED7011A968D929D92AD9226
:101F6000BC921D97D9801296DC9212974E8150E058
:101F7000542F44272D81422B15965C934E93149732
:101F8000288530E0322F2227EF812E2B21153105B5
:101F900021F0890120E030E022C0FF89EE890E2F78
:101FA00010E020E030E09801112700273F2BEC895A
:101FB000C901B8016E2B6DA77EA78FA798ABED89DD
:101FC000AE2FB0E0FA2FEE27CF01A0E0B0E00DA5D4
:101FD0001EA52FA538A9082B192B2A2B3B2B74E003
:101FE000569547957A95E1F7BA0180E090E06DA3A8
:101FF0007EA38FA398A7D901C80149A55AA56BA5AF
:102000007CA5841B950BA60BB70B84199509A60913
:10201000B709BC01CD010DA11EA12FA138A5601BE0
:10202000710B820B930B2D2D30E040E050E00E94AD
:102030004F1ADA01C9010296A11DB11DF70186836D
:102040009783A087B187873FFFE09F07A105B10570
:1020500008F412CF873F9F4FA105B10510F083E030
:1020600001C082E0D7018C938330B1F42BA18AA107
:1020700090E0A0E0B0E0DC0199278827B22B28A1EE
:10208000822B49A150E0542F442760E070E0842B5C
:10209000952BA62BB72B06C0D301C201880D991D25
:1020A000AA1DBB1DF70186879787A08BB18B0DA159
:1020B0001EA12FA138A5800E911EA21EB31E480C92
:1020C000591C6A1C7B1C428A538A648A758A118255
:1020D000F0926D00E0926C0080E001C082E0E0963A
:1020E0000FB6F894DEBF0FBECDBFDF91CF911F9129
:1020F0000F91FF90EF90DF90BF90AF909F908F90E7
:102100007F906F905F904F9008950F931F93CF93A0
:10211000DF93CDB7DEB7EC970FB6F894DEBF0FBEF6
:10212000CDBF00916C0010916D000115110509F4EF
:1021300053C0AC01F8011182CE01C1969CA38BA3C0
:10214000BE016F5F7F4F40970E945719811147C0B2
:102150008981882309F442C08C8584FD3FC08E8923
:1021600090E0982F88272D89822BA0E0B0E0DC0139
:10217000992788274C8D50E0542F44272B8D422BD4
:1021800060E070E0842B952BA62BB72BF801868F8F
:10219000978FA0A3B1A328A18F8D90E0A0E0B0E01D
:1021A000DC0199278827B22B2D8D822B4E8D50E094
:1021B000542F442760E070E0842B952BA62BB72B7F
:1021C000828F938FA48FB58F168A178A108E118EE7
:1021D00081E0818380E003C086E001C083E0EC966B
:1021E0000FB6F894DEBF0FBECDBFDF91CF911F9128
:1021F0000F9108954F925F926F927F928F929F926C
:10220000AF92BF92CF92DF92EF92FF920F931F9304
:10221000CF93DF934C016B015A01C0916C00D091B8
:102220006D00FA0111821082209709F49EC0898105
:1022300080FF9DC08A8D9B8DAC8DBD8D4E895F8941
:10224000688D798D841B950BA60BB70BA60160E0FA
:1022500070E084179507A607B70708F46C013401EE
:10226000412C32E0532EC114D10409F479C08E8977
:102270009F89A88DB98DAC01BD0151706627772764
:10228000452B462B472BD1F5FA80FA94AC01BD01C2
:1022900029E076956795579547952A95D1F7F422C9
:1022A000C1F4892B8A2B8B2B29F46E8D7F8D88A10D
:1022B00099A105C06AA17BA18CA19DA19BD662308A
:1022C00071058105910508F44DC06AA37BA38CA319
:1022D0009DA36AA17BA18CA19DA11AD66115710550
:1022E0008105910509F43EC0DC01CB018F0D911DE4
:1022F000A11DB11D8EA39FA3A8A7B9A72E893F89B1
:102300003170C201821B930B76018C159D0508F478
:102310007C014EA15FA168A579A58114910411F0FB
:10232000C30102C080E090E0870116DD81111AC070
:102330008E899F89A88DB98D8E0D9F1DA11DB11D00
:102340008E8B9F8BA88FB98F6E0C7F1CCE18DF08E9
:10235000F50180819181E80EF91EF182E08283CF40
:1023600080E006C0198281E003C086E001C085E0FC
:10237000DF91CF911F910F91FF90EF90DF90CF9061
:10238000BF90AF909F908F907F906F905F904F9095
:102390000895EF92FF920F931F93CF93DF93CDB7E2
:1023A000DEB7AC970FB6F894DEBF0FBECDBF20915D
:1023B0006C0030916D00232BB9F1AB017C01CE0193
:1023C0008196F70193838283BE016F5F7F4FC701C0
:1023D0006ED7811126C08981882309F18C8584FDFF
:1023E00002C084E022C04E8950E0542F44278D89DA
:1023F000482B60E070E0BA01552744270C8D10E0AF
:10240000102F00278B8D082B20E030E0402B512B24
:10241000622B732BF7014483558366837783C7014F
:10242000A1D5833011F4DDCF86E0AC960FB6F894D9
:10243000DEBF0FBECDBFDF91CF911F910F91FF90F7
:10244000EF900895CF92DF92EF92FF920F931F9338
:10245000CF93DF93CDB7DEB7AC970FB6F894DEBF5E
:102460000FBECDBF20916C0030916D00232B09F47D
:10247000CAC06B017C01CE018196D70113969C9353
:102480008E9312976115710519F4C7016BD5C8C0F9
:1024900093E0D7011C964D915D916D917C911F97B2
:1024A000411551056105710511F1F7012081318157
:1024B0002F70332705E0220F331F0A95E1F700E262
:1024C00010E0CE01019648DC81119FC089818823EC
:1024D00009F49DC09C85853E21F08E3211F093FF5A
:1024E00011C0C7011FD6982F882399F291C0892F58
:1024F000992341F0F70114861586168617869330C6
:1025000009F088C08601075F1F4FD7011C964D91C7
:102510005D916D917C911F97452B462B472B09F4BC
:1025200063C09E012F5F3F4FF6017196D9018D91D7
:102530009D01803271F0853009F485EE0F5F1F4FE9
:10254000A80141505109DA018C930E171F0771F74A
:1025500001C0F8018985803299F09EE290839F0145
:102560002E5F3F4F81838A85803231F02F5F3F4F4E
:1025700082838B85803211F4F90102C08383349603
:102580008C85D60118968C9328A18F8D90E0A0E0C1
:10259000B0E0DC0199278827B22B2D8D822B4E8D40
:1025A00050E0542F442760E070E0482B592B6A2BF1
:1025B0007B2BD6014D935D936D937C9313978A8DFE
:1025C00090E0982F8827298D822B15969C938E93C7
:1025D0001497888D90E0982F88272F89822B179643
:1025E0009C938E9316978F01F8011082C7019AD59C
:1025F0008330B1F4D7011C961D921D921D921C923E
:102600001F9780E00DC086E00BC091E001C093E011
:10261000892F70CF911104C08601075F1F4FE4CF4F
:10262000AC960FB6F894DEBF0FBECDBFDF91CF9151
:102630001F910F91FF90EF90DF90CF9008952FB7EB
:10264000F89410926A0096B330916A00892F90E056
:10265000809590958F709927832B80936A0090B313
:1026600030916A00892F90E0809590958076992727
:10267000832B80936A0080916A008B7621F0809191
:102680006A00806803C080916A008F7780936A0037
:102690002FBF089590916A008923089581B38F799F
:1026A00081BB87B3807F87BB82B3806682BB91B3D7
:1026B000892B81BB88B38F6088BB85B7816085BF5C
:1026C0008BB780648BBF80916A00806880936A00BA
:1026D000789408951F920F920FB60F9211242F93A2
:1026E0003F934F935F936F937F938F939F93AF939A
:1026F000BF93EF93FF93A3DFFF91EF91BF91AF9152
:102700009F918F917F916F915F914F913F912F9109
:102710000F900FBE0F901F90189580916A0087FD53
:102720008ECF08951F93CF93DF931F92CDB7DEB75F
:10273000182FC49883E099838BD29981892F88D2EE
:10274000812F86D280E084D2C49A0F90DF91CF91FE
:102750001F910895EF92FF920F931F93CF93DF93F2
:1027600000D01F92CDB7DEB7F82E8B01C49883E05E
:102770004A835B8399836CD29981892F69D28F2D8B
:1027800067D24A81E42E5B81F52E0E0D1F1DE016E7
:10279000F10631F080E05CD2F70181937F01F7CF41
:1027A000C49A0F900F900F90DF91CF911F910F91CE
:1027B000FF90EF9008951F93CF93DF9300D0CDB794
:1027C000DEB7182FC49886E06A83998341D2C49AF1
:1027D000C49882E03DD29981892F3AD2812F38D294
:1027E0006A81862F35D2C49A0F900F90DF91CF91D6
:1027F0001F910895EF92FF920F931F93CF93DF9352
:1028000000D01F92CDB7DEB7F82E8B01C49886E0BA
:102810004A835B8399831CD2C49AC49882E018D2FD
:102820009981892F15D28F2D13D24A81E42E5B8195
:10283000F52E0E0D1F1DE016F10629F0F70181910E
:102840007F0106D2F8CFC49A0F900F900F90DF91BE
:10285000CF911F910F91FF90EF9008950F931F93C9
:10286000CF93DF9300D01F92CDB7DEB7182FC49857
:1028700086E06A837B839983EBD1C49AC49882E013
:10288000E7D19981892FE4D1812FE2D16A81062F86
:102890007B81172F0115110529F080E0D9D1015056
:1028A0001109F8CFC49A0F900F900F90DF91CF913C
:1028B0001F910F910895C49885E0CAD180E0C8D1D6
:1028C000C49A0895CF93DF931F92CDB7DEB7898165
:1028D000807C826080648983CE01019690D1BC9A0D
:1028E000EADF8C7041F0C49886E0B2D181E0B0D1CB
:1028F00080E0AED1C49A0F90DF91CF910895BF923E
:10290000CF92DF92EF92FF920F931F93CF93DF93BB
:10291000282F30E02136310564F5693050F5B82EA6
:1029200086E6689FE001112450E04052510986E09C
:10293000849F7001859FF00C112400E010E08B2D26
:10294000800F6E01C80ED11CC601ECDE98012E0D61
:102950003F1DE0916000F0916100E20FF31FE491F0
:102960006E2F682BC60127DF0F5F1F4F0630110542
:1029700031F7DF91CF911F910F91FF90EF90DF9092
:10298000CF90BF9008950F931F93CF93DF93C82FDD
:10299000D62F8A01F80141918F01442399F02C2F01
:1029A00030E02136310514F44A3039F42D2F30E06F
:1029B000283031053CF4DF5FC0E06D2F8C2F9FDFA6
:1029C000C95FE8CFDF91CF911F910F9108950F93C9
:1029D0001F93CF93DF931F92CDB7DEB7262F269597
:1029E0002695269596E6299F80011124080F111D32
:1029F000C801698397DE6981962F977061E070E066
:102A000001C0660F9A95EAF7682BC8010F90DF9115
:102A1000CF911F910F91CFCECF92DF92EF92FF9285
:102A20000F931F93CF93DF93C82FD62F142F422FCE
:102A300050E0461B510957FF03C05195419551097C
:102A4000812F90E08C1B910997FF03C09195819590
:102A50009109EE24E3948417950714F0E12C06C045
:102A6000812F122F282F8C2FCD2FD82F1C1730F409
:102A70008D2FD22F282F8C2FC12F182FD12EDC1A5B
:102A8000822F90E08D1B910997FF03C0919581954E
:102A90009109082FFD2CF694D21718F0CC24CA9473
:102AA0000EC0CC24C3940BC0EE2061F06C2F8D2F90
:102AB0008EDFF01AF7FE02C0DC0DFD0CCF5F1C1795
:102AC00098F703C06D2F8C2FF3CFDF91CF911F911B
:102AD0000F91FF90EF90DF90CF900895939890988A
:102AE000B7D0909A0895CF93DF931F92CDB7DEB7FA
:102AF0008981807C826080648983CE0101967FD049
:102B000081B38B6081BB9098919A939891988FE054
:102B100097E20197F1F700C00000919A81EADEDFA9
:102B200080ECDCDF84EADADF86EAD8DF9FEF2DEE87
:102B300082E0915020408040E1F700C0000082EA2E
:102B4000CDDF8FE2CBDF81E8C9DF80E1C7DF8AEF2D
:102B5000C5DF80E9C3DF8FEAC1DF0F90DF91CF913E
:102B60000895EF92FF920F931F93CF93E12CF12CD6
:102B7000C0E08C2F806BB2DF80E1B0DF80E0AEDFA1
:102B80004FE650E066E670E0C701E4DD939A909866
:102B900000E010E0F801E159FF4F808159D00F5F4C
:102BA0001F4F06361105B1F7909ACF5F86E6E80E03
:102BB000F11CC830F1F6CF911F910F91FF90EF906B
:102BC000089560E373E080E090E048CEA69AAE9A64
:102BD0008C9A949885B5896785BD84EC83BD0895EA
:102BE000AE980895AE9A089595B380E4892785BB81
:102BF0000895949A08959498089583BD0895FC01CA
:102C000087B3806A87BBBE98B69ABE98C69A9081F1
:102C1000692F629563706064492F417050E085E0D0
:102C2000440F551F8A95E1F7462B91FB222720F987
:102C300030E054E0220F331F5A95E1F7242B9C70AB
:102C4000292B2DB9808186FB882780F98EB90895BC
:102C50008FB9779BFECF8FB1089583B7856083BF0F
:102C600089B7816089BF78941092710110927201C6
:102C7000109273011092740108951F920F920FB673
:102C80000F9211248F939F93AF93BF938091710103
:102C900090917201A0917301B09174010196A11DF0
:102CA000B11D8093710190937201A0937301B09351
:102CB0007401BF91AF919F918F910F900FBE0F90B4
:102CC0001F9018959093700180936F01E091A1017E
:102CD000F091A2018FEA96E1918780871386128690
:102CE00082E08383158614860895FC01262F948143
:102CF0008281981740F46A3031F080EE820F8F3570
:102D0000F0F02FE31CC0858190E00196618170E0B6
:102D1000B3D38583148280E030E29281891760F416
:102D20004581A681B781949FA00DB11D1124A80FE4
:102D3000B11D3C938F5FF1CF2A30F9F608953281AF
:102D400095818481A681B781399FA00DB11D112481
:102D5000A80FB11D2C9384818F5F84830895682F01
:102D600080916F0190917001C0DF80E090E0089544
:102D70000F931F93CF93DF938C01EB01699166232F
:102D800019F0C801B2DFFACFDF91CF911F910F91F7
:102D900008950F931F93CF93DF938C01FB016491F0
:102DA000EF012196662321F0C8019FDFFE01F7CFD6
:102DB000DF91CF911F910F9108956F927F929F9213
:102DC000AF92BF92CF92DF92EF92FF920F931F9339
:102DD000CF93DF931F92CDB7DEB78C01DC01119644
:102DE0009C90119715966C90712CBFEF6B1A7B0A13
:102DF000B12CE92CF12CB91439F1C301B7013CD342
:102E00006C0190E0A12CDD24F8018281A816B8F4B1
:102E10008C9D90018D9D300D1124D8011696ED9159
:102E2000FC911797E20FF31FEA0DF11D40816B2D06
:102E3000892F998364DDA39499819A5FE5CFB39438
:102E4000FFEF6F1A7F0AD7CF0F90DF91CF911F91BD
:102E50000F91FF90EF90DF90CF90BF90AF909F9039
:102E60007F906F900895FC01458364830895FC0171
:102E700060E080E291814281262F30E0949FA001A2
:102E800011242417350744F446815781DA01A20F33
:102E9000B31F8C936F5FEECF0895FF920F931F9334
:102EA000CF93DF93C82FD42F152F062FF72E87FF30
:102EB00008C040E050E0BA0187E7EFDF823010F54C
:102EC000CF77D89A8FEFC4DED8988FEFC1DE8C2FE2
:102ED000BFDE8F2DBDDE802FBBDE812FB9DE8D2FB3
:102EE000B7DEC03421F0C83421F487E803C085E997
:102EF00001C081E0ADDECAE08FEFAADE87FF02C02D
:102F0000C150D1F7DF91CF911F910F91FF9008959C
:102F10000F931F93E0916C00F0916D009B01AC0149
:102F2000225031094109510986819781A085B185D7
:102F30000297A109B109281739074A075B0760F40E
:102F4000A281B0E08FD20289138924893589600F6C
:102F5000711F821F931F03C060E070E0CB011F91BF
:102F60000F9108950F931F93CF93DF93DC01E091AE
:102F70006C00F0916D0011961C921E9214966D914A
:102F80007D918D919C911797613071058105910517
:102F900059F10681178120853185601771078207F5
:102FA000930710F5611571058105910539F42081AC
:102FB000233021F46685778580899189ED016887C2
:102FC00079878A879B87611571058105910511F0C5
:102FD0009FDF04C066857785808991896C877D87AE
:102FE0008E879F8780E001C081E0DF91CF911F91A4
:102FF0000F910895CF92DF92EF92FF920F931F935C
:10300000CF93DF9300D000D0CDB7DEB7E0916C0056
:10301000F0916D00623071058105910508F471C071
:10302000C680D780E084F1846C157D058E059F05F0
:1030300008F067C02081223019F0233021F161C0EF
:103040009B013327220F331FBB27A92F982F872FD0
:10305000C284D384E484F584AC01BD014C0D5D1DB4
:103060006E1D7F1D02E010E0CE0101960E94AC0EA5
:10307000811147C06A8170E0762F66278981682BAD
:1030800080E090E042C09B012F773327220F331F4F
:10309000220F331FDC01CB0117E0B695A79597955A
:1030A00087951A95D1F7C284D384E484F584AC0162
:1030B000BD014C0D5D1D6E1D7F1D04E010E0CE01B5
:1030C00001960E94AC0E81111CC02C816B81862F51
:1030D00090E0A0E0B0E0DC0199278827B22B29819D
:1030E000AC01BD01422B8A8190E0982F8827A0E097
:1030F000B0E0842B952BA62BB72BBC01CD019F7084
:1031000004C061E070E080E090E00F900F900F90BD
:103110000F90DF91CF911F910F91FF90EF90DF9073
:10312000CF900895CF92DF92EF92FF920F931F936B
:10313000CF93DF93EC01E0906C00F0906D0008817C
:1031400019810F5F1F4F11F483E055C04C855D85D9
:103150006E857F854115510561057105A9F3C8018B
:103160008F709927892B09F041C04F5F5F4F6F4FD8
:103170007F4F4C875D876E877F87688579858A85D5
:103180009B85F701611571058105910531F48481F5
:10319000958108171907C0F629C0228130E0A901DE
:1031A000415051099801E4E036952795EA95E1F7F9
:1031B00024233523232BD1F41DDF623071058105D3
:1031C0009105C0F0F701C680D780E084F1846C15CA
:1031D0007D058E059F0508F0B7CF688779878A87B8
:1031E0009B8796DE6C877D878E879F8719830883F0
:1031F00080E001C081E0DF91CF911F910F91FF909E
:10320000EF90DF90CF900895CF92DF92EF92FF92F0
:103210000F931F93CF93DF93EC016A017B0102E0D0
:1032200010E02EEF31E00E94AC0E811132C0898196
:1032300090E0982F88272881822B85359A4A59F566
:1032400026E330E0B701A601CE010E94AC0E811149
:103250000BC0898190E0982F88272881822B8634A3
:10326000914411F480E01AC002E010E022E530E061
:10327000B701A601CE010E94AC0E81110EC089815A
:1032800090E0982F88272881822B8634914429F456
:10329000E9CF83E003C082E001C081E0DF91CF91FC
:1032A0001F910F91FF90EF90DF90CF9008959F9224
:1032B000AF92BF92CF92DF92EF92FF920F931F9344
:1032C000CF93DF93EC017B01242F952FDA018D91B1
:1032D000AD018032C9F3C22ED92E8F3219F4BFEF5F
:1032E000CB1ADB0A1C821D821E821F82F60180819E
:1032F000813238F0E0E29E2E5701FBE0AF0EB11CA8
:1033000065C0CE012FDED7011C92A0C090E080E006
:1033100028E031E0380FD601A80FB11D8C91813221
:1033200008F05FC0C30ED11C91E0813208F090E03C
:103330009387CE0117DE811174C0288139812F70E7
:10334000332775E0220F331F7A95E1F74C855D85B1
:103350006E857F8500E210E0C7010E94AC0E8111EE
:1033600069C0F7018081882309F45DC0438543FD6E
:1033700055C06A817B819B01EA15FB0509F045C0B8
:10338000FB018385811158C044FF58C0D701559671
:103390008C91559790E0982F882754962C91822BEA
:1033A000A0E0B0E0DC0199278827F701438D50E0C9
:1033B000542F4427228D422B60E070E0842B952B04
:1033C000A62BB72B8C839D83AE83BF83EA81FB81C1
:1033D000DF01CF010B96A817B90709F497CF9D928B
:1033E000FACF8F3209F49ECF8E3251F1921708F046
:1033F00099CF4FE9480F4A3108F48052DF01A90FF5
:10340000B11D8C939F5F832F84CF8191D9015D91F2
:103410009D0190E0851B910909F4AECFCE0182DEBB
:103420008ACF833099F4EA81FB818385882331F048
:1034300083E00CC081E00AC080E008C084E006C0E0
:10344000283009F06FCF98E02BE0DDCFDF91CF91EE
:103450001F910F91FF90EF90DF90CF90BF90AF90B2
:103460009F9008953ED0A59F900DB49F900DA49F6E
:10347000800D911D1124089597FB072E16F40094DA
:1034800006D077FD08D03CD007FC05D03EF49095DF
:1034900081959F4F0895709561957F4F0895A1E2A2
:1034A0001A2EAA1BBB1BFD010DC0AA1FBB1FEE1FBE
:1034B000FF1FA217B307E407F50720F0A21BB30B09
:1034C000E40BF50B661F771F881F991F1A9469F785
:1034D00060957095809590959B01AC01BD01CF01E1
:1034E0000895A29FB001B39FC001A39F700D811DDD
:1034F0001124911DB29F700D811D1124911D0895FD
:10350000AA1BBB1B51E107C0AA1FBB1FA617B70709
:1035100010F0A61BB70B881F991F5A95A9F7809525
:103520009095BC01CD0108950F931F93CF93DF9326
:103530008C01E091A101F091A201838181FF1BC068
:10354000D0E0C0E0F80184916091A1017091A201E6
:10355000DB011896ED91FC911997882341F00995AC
:10356000892B11F0DFEFCFEF0F5F1F4FEBCF8AE01A
:103570000995892B19F08FEF9FEF02C08D2F9C2F9B
:0A358000DF91CF911F910F91089584
:1038000067C100000C946A137EC100007CC10000F7
:103810007AC1000078C1000076C1000074C10000C8
:1038200072C100002ACA00006EC100006CC1000015
:103830006AC1000068C1000066C1000064C10000E8
:1038400062C1000060C100005EC100005CC10000F8
:103850005AC10000424F4F54204552524F5200422D
:103860006F6F74696E6721006170702E62696E00FF
:10387000466C617368696E673A00423A20426F6F26
:103880007400413A20466C61736800426F6F746C3B
:103890006F61646572000000000000002E000000EF
:1038A00000000300030000000A1F0A1F0A002E2A5E
:1038B0006B2A3A000E2A1E083C2A3E2A2A22380881
:1038C0000300000000001C2200000000221C000079
:1038D0000000150E040E150008083E0808006000E0
:1038E0000000000008080808080020000000000090
:1038F0002010080402003E222A223E00043E00005E
:1039000000003A2A2A2A2E002A2A2A2A3E000E08D5
:1039100008083E002E2A2A2A3A003E2A2A2A3A007D
:10392000020202023E003E2A2A2A3E002E2A2A2AAB
:103930003E001400000000003400000000000814E5
:1039400022000000141414141400221408000000B3
:1039500006022A0A0E003E023A2A3E003E121212C7
:103960003E003E2A2A2A36003E22222222003E2201
:1039700022221C003E2A2A2A22003E0A0A0A0200AB
:103980003E222A2A3A003E0808083E00223E220033
:103990000000382020203E003E08081422003E206F
:1039A000202020003E0438043E003E0408103E0063
:1039B0003E2222223E003E0A0A0A0E003E227222C7
:1039C0003E003E0A0A1A2E002E2A2A2A3A00020235
:1039D0003E0202001E2020201E000E1020100E00AD
:1039E0003E100E103E002214081422000204380477
:1039F00002003A2A2A2A2E003E22000000003F211F
:103A00003F000000223E000000000C1E3C1E0C0087
:103A10002020202020001C3E3E3E1C003C2424246C
:103A20003C203E2424243C003C24242424003C2428
:103A300024243E003C24342C2400083E0A0A0000C2
:103A40001C5454547C003E0404043C003A00000022
:103A500000007A00000000003E0814220000023E30
:103A6000000000003C043C043C003C0404043C0016
:103A70003C2424243C007C2424243C003C24242496
:103A80007C003C0404040000242C34240000043E88
:103A9000242400003C2020203C000C1020100C00AE
:103AA0003C203C203C002424182424001C5050506E
:103AB0007C0024342C240000083E220000001C223C
:103AC00022221C00223E080000000101010000002B
:103AD00011241FBECFE5D4E0DEBFCDBF10E0A0E6CD
:103AE000B0E0E6EFFDE302C005900D92AA36B10703
:103AF000D9F711E0AAE6B0E001C01D92A53AB107DE
:103B0000E1F7B0D076C17CCECF92DF92EF92FF92F8
:103B10001F93CF93DF93AFB7F894E199FECF7B016A
:103B200023E0FB0120935700E89507B600FCFDCF8A
:103B300020E030E0B1E0EA0118814E5F5F4FF9010B
:103B4000EE0DFF1D6A01D1E0CD1AD108E601D88043
:103B5000CD2CD12CDC2CCC24C10ED11C0601B09371
:103B60005700E89511242E5F3F4F2038310519F793
:103B700025E0FB0120935700E89507B600FCFDCF38
:103B800081E180935700E895AFBFDF91CF911F91FE
:103B9000FF90EF90DF90CF900895CF92DF92EF9259
:103BA000FF920F931F93CF93DF93CDB7DEB7C25829
:103BB000D1090FB6F894DEBF0FBECDBFCF57DF4F90
:103BC00019821882C158D0400E94851081113AC0D4
:103BD000C12CD12C76011FEF00E4FE01319680E06C
:103BE00011938F5F8038E1F7AE014F575F4F60E868
:103BF00070E0CE0101960E94FA10CF57DF4F888106
:103C00009981C158D040892B31F0AE014F5F5F4F91
:103C1000C701B60179DF85B3802785BB2FEF89EF18
:103C200090E0215080409040E1F700C0000020E883
:103C3000C20ED11CE11CF11CC1148CE1D806E104B8
:103C4000F10459F6CE57DF4F0FB6F894DEBF0FBE22
:103C5000CDBFDF91CF911F910F91FF90EF90DF903B
:103C6000CF900895CF93DF93CDB7DEB7C059D10978
:103C70000FB6F894DEBF0FBECDBFF89481E08BBFC6
:103C800082E08BBF7894BC9A0E94E6150E944E1386
:103C90000E9473150E94621481E1C557DF4F88832B
:103CA000CB58D04088E0C657DF4F8883CA58D040F1
:103CB000C357DF4F1882CD58D040C257DF4F18820C
:103CC000CE58D040CE010196C157DF4F99838883EB
:103CD000CF58D04088579F4FCAD8CE0187579F4FA3
:103CE0000E9462168BE898E31FDC82E898E31CDCF4
:103CF0008AE798E319DC80916F01909170015DD89B
:103D00000E94B1150E94E1150E948D1380E40E946B
:103D10004A13811106C080E20E944A138823A1F34E
:103D20001BC040D0811131C082E690E00E94851016
:103D300081112BC080E798E3F7DB88E698E3F4DB9A
:103D400080916F019091700138D80E94B1150E9446
:103D5000E11582E690E021DF8FE598E3E5DB8091D5
:103D60006F019091700129D80E94B1150E94E11550
:103D70002FEF84E39CE0215080409040E1F700C0A9
:103D80000000F894E0E0F0E0099484E598E3CCDBEF
:103D900080916F019091700110D80E94B1150E941E
:103DA000E115F6CF1F93CF93DF931F92CDB7DEB708
:103DB000D09A8981807C826280648983CE01019659
:103DC0000E94FF1585E791E00E94000F182F99814E
:103DD0009F7C90649983CE0101960E94FF1511117A
:103DE00002C080E001C083E00F90DF91CF911F916E
:063DF0000895F894FFCFD6
:0A3DF60096386170702E62696E004D
:0400000300003800C1
:00000001FF
