S0120000626F6F746C6F616465722E73726563E7
S1132400A0E0B0E0E6E0F2E10C94401B7C0169013D
S11324108091730183FD07C089E0440F551F661F37
S1132420771F8A95D1F781E526D5882311F0C1E07D
S11324302BC0C0E4DCE98FEF19D58F3F19F4219745
S1132440D1F7F5CF8E3F99F7C2E0D2E0C01BD10B94
S1132450CC19DD09C114D10421F4E114F10439F4D7
S11324600EC08FEF03D581E0C81AD108F3CF8FEFE8
S1132470FDD4F70181937F0101501109C1F78FEF5A
S1132480F5D42197E1F7C0E0D89A8FEFEFD48C2FE1
S1132490CDB7DEB7E8E00C94DA1BA0E0B0E0E3E5EA
S11324A0F2E10C94381B4C016B015A01C091740188
S11324B0D0917501FA0111821082209709F49EC00F
S11324C0898180FF9DC08A8D9B8DAC8DBD8D4E8989
S11324D05F89688D798D841B950BA60BB70BA601BC
S11324E060E070E084179507A607B70708F46C014D
S11324F03401412C32E0532EC114D10409F479C0C3
S11325008E899F89A88DB98DAC01BD015170662754
S11325107727452B462B472BD1F5FA80FA94AC014B
S1132520BD0129E076956795579547952A95D1F78A
S1132530F422C1F4892B8A2B8B2B29F46E8D7F8D89
S113254088A199A105C06AA17BA18CA19DA12BD6CC
S1132550623071058105910508F44DC06AA37BA31F
S11325608CA39DA36AA17BA18CA19DA1DFD361153E
S113257071058105910509F43EC0DC01CB018F0D85
S1132580911DA11DB11D8EA39FA3A8A7B9A72E8934
S11325903F893170C201821B930B76018C159D0516
S11325A008F47C014EA15FA168A579A5811491046A
S11325B011F0C30102C080E090E0870121DF8111A6
S11325C01AC08E899F89A88DB98D8E0D9F1DA11D5E
S11325D0B11D8E8B9F8BA88FB98F6E0C7F1CCE186C
S11325E0DF08F50180819181E80EF91EF182E08215
S11325F083CF80E006C0198281E003C086E001C079
S113260085E0CDB7DEB7E0E10C94D21BACE2B0E0DC
S1132610ECE0F3E10C94401B2091740130917501BE
S1132620232B09F4CAC06B017C01CE018196D7012A
S113263013969C938E9312976115710519F4C70133
S11326409FD3C8C093E0D7011C964D915D916D91C5
S11326507C911F97411551056105710511F1F70131
S1132660208131812F70332705E0220F331F0A9513
S1132670E1F700E210E0CE010196C2DE81119FC0B5
S11326808981882309F49DC09C85853E21F08E3282
S113269011F093FF11C0C7010BD6982F882399F22C
S11326A091C0892F992341F0F70114861586168667
S11326B01786933009F088C08601075F1F4FD70142
S11326C01C964D915D916D917C911F97452B462BE6
S11326D0472B09F463C09E012F5F3F4FF6017196AB
S11326E0D9018D919D01803271F0853009F485EE18
S11326F00F5F1F4FA80141505109DA018C930E1747
S11327001F0771F701C0F8018985803299F09EE2B4
S113271090839F012E5F3F4F81838A85803231F001
S11327202F5F3F4F82838B85803211F4F90102C001
S1132730838334968C85D60118968C9328A18F8D2B
S113274090E0A0E0B0E0DC0199278827B22B2D8D22
S1132750822B4E8D50E0542F442760E070E0482BCC
S1132760592B6A2B7B2BD6014D935D936D937C93F0
S113277013978A8D90E0982F8827298D822B1596A0
S11327809C938E931497888D90E0982F88272F8997
S1132790822B17969C938E9316978F01F8011082C3
S11327A0C70186D58330B1F4D7011C961D921D92C2
S11327B01D921C921F9780E00DC086E00BC091E033
S11327C001C093E0892F70CF911104C08601075F87
S11327D01F4FE4CFAC96E8E0EDC7ACE2B0E0E2EF27
S11327E0F3E150C72091740130917501232BB9F1A5
S11327F0AB017C01CE018196F70193838283BE01F4
S11328006F5F7F4FC701BED5811126C089818823A0
S113281009F18C8584FD02C084E022C04E8950E019
S1132820542F44278D89482B60E070E0BA01552766
S113283044270C8D10E0102F00278B8D082B20E0EF
S113284030E0402B512B622B732BF70144835583CB
S113285066837783C70194D2833011F4DDCF86E099
S1132860AC96E6E0A9C7ACE3B0E0E8E3F4E10CC75A
S113287000917401109175010115110509F452C0FC
S1132880AC01F8011182CE01C1969CA38BA3BE01B9
S11328906F5F7F4F409776D5811147C08981882328
S11328A009F442C08C8584FD3FC08E8990E0982F46
S11328B088272D89822BA0E0B0E0DC0199278827A6
S11328C04C8D50E0542F44272B8D422B60E070E058
S11328D0842B952BA62BB72BF801868F978FA0A35B
S11328E0B1A328A18F8D90E0A0E0B0E0DC0199278E
S11328F08827B22B2D8D822B4E8D50E0542F4427E8
S113290060E070E0842B952BA62BB72B828F938FDE
S1132910A48FB58F168A178A108E118E81E0818359
S113292080E003C086E001C083E0EC96E4E046C7A3
S1132930A4E0B0E0EDE9F4E1A1C6D89A1AE08FEF83
S113294095D21150E1F740E050E0BA0180E493D20F
S1132950813009F07DC04AEA51E060E070E088E42B
S11329608AD2813069F58E010F5F1F4F780144E0F0
S1132970D42ED00E8FEF7AD2F70181937F01DE122D
S1132980F9CF8B81813009F063C08C818A3A09F0D8
S11329905FC020E1E22E27E2F22E38ECA32EB12C08
S11329A040E050E060E070E489EE65D2882351F1A4
S11329B0C5010197F1F7F1E0EF1AF10889F748C072
S11329C040E050E0BA0189EE56D2823018F011E0AE
S11329D001E402C012E009EE80E1E82E87E2F82E5D
S11329E098ECC92ED12C40E050E0BA01802F43D29C
S11329F0882331F1C6010197F1F7F1E0EF1AF108EC
S1132A0091F726C040E050E0BA018AE734D2811140
S1132A101FC08FEF2BD2F80181938F01DE12F9CF03
S1132A20898186FD02C014E001C01CE0109373018B
S1132A30D89A8FEF1BD281E0112361F080E00AC0A5
S1132A4040E052E060E070E080E515D2882371F345
S1132A5010E0ECCF2496EAE0ABC6A0E3B0E0E2E3FA
S1132A60F5E106C61092750110927401009709F4FD
S1132A7056C17C015DDF80FD54C140E050E0BA01E5
S1132A80CE01019648D3813091F500E110E02EEBA0
S1132A9031E040E050E0BA01CE010196B1DC882378
S1132AA011F011E03FC18D81811102C017E03AC1DC
S1132AB08C858B84912CA12CB12C540199248824CD
S1132AC0B82A8985A5019401282BDA01C9018A84D1
S1132AD0912C982C8824A12CB12C882A992AAA2AD2
S1132AE0BB2AB501A401CE01019615D303C0812CE4
S1132AF0912C54018330A9F28111D8CF04E210E063
S1132B002DE030E0B501A401CE01019679DC182F47
S1132B108111C7CF2B8530E0322F22278A85282BBD
S1132B202115310519F040E050E018C08B8D2A8D35
S1132B30422F50E060E070E0BA0155274427782B1B
S1132B40888D482B898D90E0982F8827A0E0B0E0ED
S1132B509A01AB01282B392B4A2B5B2BAC81B0E0BB
S1132B603AD52B013C014B8150E0542F44278A81F4
S1132B70482BCA01A0E0B0E08DA79EA7AFA7B8ABD1
S1132B80880E991EAA1EBB1ED7011A968D929D927D
S1132B90AD92BC921D97098112960C93AE81B0E060
S1132BA0BA2FAA278D816D01C82AF701D582C48264
S1132BB0288530E0322F22278F81282B21153105DB
S1132BC041F0C901A0E0B0E089A79AA7ABA7BCA7D0
S1132BD026C02F89EE898E2F90E0A0E0B0E0BC01E2
S1132BE055274427722B2C89DB01CA01822B8DA324
S1132BF09EA3AFA3B8A7ED898E2F90E0F82FEE2700
S1132C009F0140E050E08DA19EA1AFA1B8A5282B63
S1132C10392B4A2B5B2B29A73AA74BA75CA7960114
S1132C2074E0369527957A95E1F7C901A0E0B0E004
S1132C308DA39EA3AFA3B8A789A59AA5ABA5BCA550
S1132C402DA53EA54FA558A9821B930BA40BB50B2C
S1132C5084199509A609B709BC01CD012DA13EA18E
S1132C604FA158A5621B730B840B950B202F30E0EA
S1132C7040E050E0D9D4DA01C9010296A11DB11D8A
S1132C80F70186839783A087B187873FFFE09F077B
S1132C90A105B10508F40ACF873F9F4FA105B105EF
S1132CA010F083E001C082E0D7018C938330B1F44B
S1132CB02BA18AA190E0A0E0B0E0DC01992788274D
S1132CC0B22B28A1822B49A150E0542F442760E065
S1132CD070E0842B952BA62BB72B06C0D301C20121
S1132CE0880D991DAA1DBB1DF70186879787A08BA8
S1132CF0B18B2DA13EA14FA158A5820E931EA41EF7
S1132D00B51E480C591C6A1C7B1C428A538A648A6F
S1132D10758A1182F0927501E092740103C010E08B
S1132D2001C012E0812FE096E0E13CC50F931F93B0
S1132D30E0917401F09175019B01AC0122503109BD
S1132D404109510986819781A085B1850297A1091E
S1132D50B109281739074A075B0760F4A281B0E07C
S1132D603AD40289138924893589600F711F821F1F
S1132D70931F03C060E070E0CB011F910F91089591
S1132D800F931F93CF93DF93DC01E0917401F091D3
S1132D90750111961C921E9214966D917D918D91E0
S1132DA09C911797613071058105910559F1068150
S1132DB0178120853185601771078207930710F505
S1132DC0611571058105910539F42081233021F4C1
S1132DD06685778580899189ED01688779878A87F7
S1132DE09B87611571058105910511F09FDF04C072
S1132DF066857785808991896C877D878E879F8793
S1132E0080E001C081E0DF91CF911F910F9108957F
S1132E10E0917101F091720195818A3039F481E079
S1132E20890F6281E2D3958314821DC020EE280F9E
S1132E302F3508F08FE331812481A681B781399F32
S1132E40A00DB11D1124A20FB11D8C9384818F5F3D
S1132E5084836281681738F41482858190E0019636
S1132E6070E0CFD3858380E090E008958FB9779B9D
S1132E70FECF8FB10895CF92DF92EF92FF92CF935E
S1132E80C82F6A017B0187FF08C040E050E0BA0107
S1132E9087E7F1DF823010F5CF77D89A8FEFE6DF3E
S1132EA0D8988FEFE3DF8C2FE1DF8F2DDFDF8E2DBE
S1132EB0DDDF8D2DDBDF8C2DD9DFC03421F0C8346C
S1132EC021F487E803C085E901C081E0CFDFCAE0CF
S1132ED08FEFCCDF87FF02C0C150D1F7CF91FF90B5
S1132EE0EF90DF90CF900895A8E0B0E0E9E7F7E134
S1132EF0BDC37C01FC014181258100E010E0C42EAA
S1132F00D12C30E0041708F07CC0C901801B910B60
S1132F10B60177D38C0D9D1DB60173D3682FFC01C8
S1132F20FF27F887EF8356E65E9F10015F9F300C02
S1132F30112450E090E0F7018281981708F05EC0F8
S1132F40EF81F8858E9F50018F9FB00C1124F701FB
S1132F50A681B781F501EA0FFB1FE90FF11DE0819E
S1132F60513608F048C0693008F045C0F0E0B09729
S1132F7086E08E9F40018F9F900C1124412C512C90
S1132F80852F840D5101A80EB11CC49883E02D83B4
S1132F903E834A835C836B83998368DF6B2C77243D
S1132FA0862D64DF8A2D62DF80E060DFC49AF2013F
S1132FB0E80DF91DEC5AF74CE491BE2EB82AC498DA
S1132FC086E054DFC49AC49882E050DF862D4EDF39
S1132FD08A2D4CDF8B2D4ADFC49AEFEF4E1A5E0A1E
S1132FE02D813E814A815C816B819981F6E04F1687
S1132FF0510409F0C5CF9F5F5A5F9DCF0F5F1F4FEC
S113300081CF2896E2E1CCC3FC0187B3806A87BBF9
S1133010BE98B69ABE98C69A9081692F62956370DD
S11330206064492F417050E085E0440F551F8A9534
S1133030E1F7462B91FB222720F930E054E0220FE0
S1133040331F5A95E1F7242B9C70292B2DB98081CD
S113305086FB882780F98EB90895CF93DF93C498AF
S113306086E004DFC49AC49882E000DF80E0FEDEDC
S113307080E0FCDEC1E3D3E0219719F080E0F6DEC6
S1133080FBCFC49ADF91CF91089593989098EEDE88
S1133090909A0895EF92FF920F931F93CF9300E0BD
S11330A010E0C0E08C2F806BF0DF80E1EEDF80E089
S11330B0ECDFC49883E0DADE812FD8DE802FD6DE01
S11330C08CE6E82E80E0F82E80E0D0DEF7018193D4
S11330D07F01F2EDEF16F0E0FF06B1F7C49A939A80
S11330E09098E12CF12CF701E459FF4F8081BEDE6A
S11330F08FEFE81AF80AE6E6EE16F104A1F7909AC3
S1133100CF5F0A591F4FC83069F6CF911F910F91B5
S1133110FF90EF900895A0E0B0E0E0E9F8E1B0C2DC
S1133120EC016A017B0102E010E02EEF31E068D986
S1133130811130C0898190E0982F88272881822BC3
S113314085359A4A49F526E330E0B701A601CE0158
S113315057D981110BC0898190E0982F8827288145
S1133160822B8634914411F480E019C002E010E00F
S113317022E530E0B701A601CE0142D981110EC08B
S1133180898190E0982F88272881822B8634914466
S113319029F4EACF83E003C082E001C081E0CDB727
S11331A0DEB7E8E007C3A4E0B0E0E8EDF8E168C208
S11331B0E0917401F091750162307105810591050A
S11331C008F46FC0C680D780E084F1846C157D0557
S11331D08E059F0508F065C02081223019F0233048
S11331E019F15FC09B013327220F331FBB27A92F7F
S11331F0982F872FC284D384E484F584AC01BD0165
S11332004C0D5D1D6E1D7F1D02E010E0CE01019688
S1133210F7D8811146C06A8170E0762F66278981CC
S1133220682B80E090E041C09B012F773327220F69
S1133230331F220F331FDC01CB0117E0B695A7958E
S1133240979587951A95D1F7C284D384E484F5843D
S1133250AC01BD014C0D5D1D6E1D7F1D04E010E031
S1133260CE010196CDD881111CC02C816B81862F93
S113327090E0A0E0B0E0DC0199278827B22B2981F7
S1133280AC01BD01422B8A8190E0982F8827A0E0F1
S1133290B0E0842B952BA62BB72BBC01CD019F70DE
S11332A004C061E070E080E090E02496E8E082C22F
S11332B0A0E0B0E0EDE5F9E1E3C1EC01E0907401D8
S11332C0F0907501088119810F5F1F4F11F483E09D
S11332D055C04C855D856E857F8541155105610519
S11332E07105A9F3C8018F709927892B09F041C092
S11332F04F5F5F4F6F4F7F4F4C875D876E877F8730
S1133300688579858A859B85F70161157105810535
S1133310910531F48481958108171907C0F629C0F5
S1133320228130E0A901415051099801E4E0369529
S11333302795EA95E1F724233523232BD1F433DFB2
S11333406230710581059105C0F0F701C680D78010
S1133350E084F1846C157D058E059F0508F0B7CFD8
S1133360688779878A879B87E1DC6C877D878E876E
S11333709F871983088380E001C081E0CDB7DEB761
S1133380E8E018C2A0E0B0E0E7ECF9E176C1EC01B6
S11333907B016A01DA018D91AD018032D1F38F3264
S11333A009F46D011C821D821E821F82F601808138
S11333B0813238F0E0E29E2E5701FBE0AF0EB11CE3
S11333C065C0CE01DDDCD7011C92A0C090E080E096
S11333D028E031E0380FD601A80FB11D8C9181325D
S11333E008F05FC0C30ED11C91E0813208F090E078
S11333F09387CE01C5DC811174C0288139812F7077
S1133400332775E0220F331F7A95E1F74C855D85EC
S11334106E857F8500E210E0C7010E9400128111D1
S113342069C0F7018081882309F45DC0438543FDA9
S113343055C06A817B819B01EA15FB0509F045C0F3
S1133440FB018385811158C044FF58C0D7015596AC
S11334508C91559790E0982F882754962C91822B25
S1133460A0E0B0E0DC0199278827F701438D50E004
S1133470542F4427228D422B60E070E0842B952B3F
S1133480A62BB72B8C839D83AE83BF83EA81FB81FC
S1133490DF01CF010B96A817B90709F497CF9D92C6
S11334A0FACF8F3209F49ECF8E3251F1921708F081
S11334B099CF4FE9480F4A3108F48052DF01A90F30
S11334C0B11D8C939F5F832F84CF8191D9015D912E
S11334D09D0190E0851B910909F4AECFCE01E8DE91
S11334E08ACF833099F4EA81FB818385882331F084
S11334F083E00CC081E00AC080E008C084E006C01C
S1133500283009F06FCF98E02BE0DDCFCDB7DEB7E0
S1133510EBE04DC11F920F920FB60F9211248F93BF
S11335209F93AF93BF9380916D0190916E01A09191
S11335306F01B09170010196A11DB11D80936D01C1
S113354090936E01A0936F01B0937001BF91AF91FE
S11335509F918F910F900FBE0F901F9018951F92FF
S11335600F920FB60F9211242F933F938F939F9333
S11335702FB7F89410926C0196B330916C01892F97
S113358090E0809590958F709927832B80936C01A0
S113359090B330916C01892F90E08095909580765E
S11335A09927832B80936C0180916C018B7621F099
S11335B080916C01806803C080916C018F77809347
S11335C06C012FBF9F918F913F912F910F900FBE50
S11335D00F901F90189566D0A59F900DB49F900DE5
S11335E0A49F800D911D11240895991B79E004C0B6
S11335F0991F961708F0961B881F7A95C9F780952E
S1133600089597FB072E16F4009406D077FD08D092
S113361058D007FC05D03EF4909581959F4F0895AE
S1133620709561957F4F0895A1E21A2EAA1BBB1BCA
S1133630FD010DC0AA1FBB1FEE1FFF1FA217B3077A
S1133640E407F50720F0A21BB30BE40BF50B661F90
S1133650771F881F991F1A9469F760957095809554
S113366090959B01AC01BD01CF0108952F923F922B
S11336704F925F926F927F928F929F92AF92BF927E
S1133680CF92DF92EF92FF920F931F93CF93DF932A
S1133690CDB7DEB7CA1BDB0B0FB6F894DEBF0FBE87
S11336A0CDBF0994A29FB001B39FC001A39F700D29
S11336B0811D1124911DB29F700D811D1124911D36
S11336C00895AA1BBB1B51E107C0AA1FBB1FA61765
S11336D0B70710F0A61BB70B881F991F5A95A9F7B7
S11336E080959095BC01CD010895EF92FF920F93C0
S11336F01F93CF93DF938C017B01DB0113968C9195
S113370081FF17C0D0E0C0E0F8018491882371F0F4
S1133710D7011896ED91FC911997B7010995892B5A
S113372011F0DFEFCFEF0F5F1F4FEECF8D2F9C2FE8
S113373002C08FEF9FEFCDB7DEB7E6E03DC00F9339
S11337401F93CF93DF938C01E0917801F09179017D
S1133750838181FF1BC0D0E0C0E0F80184916091B7
S1133760780170917901DB011896ED91FC9119971C
S1133770882341F00995892B11F0DFEFCFEF0F5F1C
S11337801F4FEBCF8AE00995892B19F08FEF9FEF3C
S113379002C08D2F9C2FDF91CF911F910F9108951F
S11337A02A88398848885F846E847D848C849B84CD
S11337B0AA84B984C884DF80EE80FD800C811B81DB
S11337C0AA81B981CE0FD11D0FB6F894DEBF0FBE0A
S10937D0CDBFED010895D8
S113380089C10000ACCE0000A0C100009EC1000030
S11338109CC100009AC1000098C1000096C100003C
S113382094C1000077CE000090C100008EC100005A
S11338308CC100008AC1000088C1000086C100005C
S113384084C1000082C1000080C100007EC100006C
S11338507CC100000000000000002E0000000000F9
S11338600300030000000A1F0A1F0A002E2A6B2A05
S11338703A000E2A1E083C2A3E2A2A22380803004F
S1133880000000001C2200000000221C00000000B8
S1133890150E040E150008083E080800600000001C
S11338A0000008080808080020000000000020109C
S11338B0080402003E222A223E00043E00000000CA
S11338C03A2A2A2A2E002A2A2A2A3E000E08080802
S11338D03E002E2A2A2A3A003E2A2A2A3A000202C6
S11338E002023E003E2A2A2A3E002E2A2A2A3E00AE
S11338F0140000000000340000000000081422003E
S11339000000141414141400221408000000060209
S11339102A0A0E003E023A2A3E003E1212123E00CD
S11339203E2A2A2A36003E22222222003E22222237
S11339301C003E2A2A2A22003E0A0A0A02003E22CB
S11339402A2A3A003E0808083E00223E22000000CF
S1133950382020203E003E08081422003E2020206B
S113396020003E0438043E003E0408103E003E227F
S113397022223E003E0A0A0A0E003E2272223E0025
S11339803E0A0A1A2E002E2A2A2A3A0002023E026F
S113399002001E2020201E000E1020100E003E10DB
S11339A00E103E00221408142200020438040200FF
S11339B03A2A2A2A2E003E22000000003F213F001E
S11339C00000223E000000000C1E3C1E0C002020C3
S11339D0202020001C3E3E3E1C003C2424243C208D
S11339E03E2424243C003C24242424003C24242479
S11339F03E003C24342C2400083E0A0A00001C54D7
S1133A0054547C003E0404043C003A0000000000CE
S1133A107A00000000003E0814220000023E00006C
S1133A2000003C043C043C003C0404043C003C24F2
S1133A3024243C007C2424243C003C2424247C00B6
S1133A403C0404040000242C34240000043E2424F8
S1133A5000003C2020203C000C1020100C003C20D6
S1133A603C203C002424182424001C5050507C008A
S1133A7024342C240000083E220000001C222222B0
S1133A801C00223E080000000101010000004D6FEF
S1133A90756E742073756363657373210A004D6FCB
S1133AA0756E74204661696C65640A004E6F204629
S1133AB0530A004469736B204572722E0A004E6FDC
S1133AC0742052656164790A004D6F756E74204FDD
S1133AD04B0A004D6F756E74696E670A004E4F494C
S1133AE04E49540A004E440A00446F6E65004C6F00
S1133AF06164696E672E2E2E0046696C653A2074E7
S1133B006573742E62696E00426F6F746C6F6164CA
S1133B106572000011241FBECFE5D4E0DEBFCDBF27
S1133B2010E0A0E6B0E0EEECFEE302C005900D92DA
S1133B30AA36B107D9F711E0AAE6B0E001C01D9298
S1133B40AC37B107E1F702D0C0C15ACEA1E9B0E069
S1133B50EBEAFDE195CDF89481E08BBF82E08BBF69
S1133B607894BC9AA69AAE9A8C9A9498949881B3B5
S1133B708F7981BB87B3807F87BB82B3806682BB2A
S1133B8091B3892B81BB88B38F6088BB85B7816073
S1133B9085BF8BB780648BBF80916C0180688093F4
S1133BA06C0178948981807C8260806489838E0131
S1133BB00F5F1F4FC80128DA81B38B6081BB9098D7
S1133BC0919A9398919880E197E20197F1F7919AED
S1133BD081EA5BDA80EC59DA84EA57DA86EA55DA64
S1133BE080EB94E028EC30E0F9013197F1F701978C
S1133BF0D9F782EA4ADA8FE248DA81E846DA80E1E4
S1133C0044DA8AEF42DA80E940DA8FEA3EDA9981CF
S1133C10907C926090649983C801F6D9BC9AC49848
S1133C2085E024D980E022D9C49A8C7041F0C498EC
S1133C3086E01CD981E01AD980E018D9C49AFE0123
S1133C40E757FF4F81E1828388E0818314821582E4
S1133C501783068340E050E221813281842F90E073
S1133C60239F900111248217930744F426813781FE
S1133C70D901A80FB91F5C934F5FEECFF093720187
S1133C80E0937101E0917801F091790188E097E186
S1133C90918780871386128682E083831586148633
S1133CA0BF0188E09BE321DD609178017091790187
S1133CB089EF9AE31ADD60917801709179018EEEB3
S1133CC09AE313DD80917101909172010DD9E2D9CB
S1133CD0C4D9CF56DF4F8881C159D040807C8262DD
S1133CE08064CF56DF4F8883C159D040CE018F56B0
S1133CF09F4F8AD9D09A05E10E949814182F81FF0A
S1133D0008C085EE9AE31BDD8091710190917201E8
S1133D10EBD810FF08C08DED9AE311DD809171019D
S1133D2090917201E1D8B6D9111102C0015021F766
S1133D3083ED9AE304DD8091710190917201D4D8EE
S1133D40A9D9CF56DF4F8881C159D0408F7C806478
S1133D50CF56DF4F8883C159D040CE018F569F4F35
S1133D6053D905E1C0906A00D0906B00C6010E944F
S1133D702D15F82E113071F038F0123041F0173053
S1133D8061F48CEA9AE308C089EC9AE305C08EEBEF
S1133D909AE302C083EB9AE3D2DC809171019091A3
S1133DA07201A2D877D9015019F0F110DFCF05C004
S1133DB0FF2019F08EE99AE302C08EE89AE3BFDC93
S1133DC080917101909172018FD864D91FB7F894D2
S1133DD080E690E00E943314CF56DF4F1882C15919
S1133DE0D040AE014F565F4F60E071E08CE690E04A
S1133DF00E944D12CF56DF4F8881C159D04030E028
S1133E0060E071E000E425E0F22E462F50E0FA0174
S1133E10F695FE2FEE27F795E79590E8E92EE30E49
S1133E20282F3E110BC0822FFA01F695FE2FEE27A4
S1133E30F795E795F0925700E8951EC0223098F365
S1133E402250A32FB0E0A459BF4FDC90A1E0A30FF0
S1133E50B0E03E5FA459BF4F8C9190E0982F882723
S1133E608D0D911D0C0170935700E895112485B3B5
S1133E70802785BB3296D5CF07B600FCFDCF6F5F98
S1133E802111C3CF81E180935700E8951FBF609152
S1133E9078017091790189EE9AE327DC80917101B0
S1133EA09091720121D8F6D8D8D880916C0180768F
S1133EB011F0AE9804C080916C0181FDAE9A80919E
S1113EC06C0181FFF2CFAE9AF0CFF894FFCFE1
S10D3ECE746573742E62696E0000BF
S9033800C4
