:100400009F938F9380E690E09F938F93D8D60F9021
:100410000F900F900F9008950F9397B3986297BB2A
:10042000BC98C49A23702064942F937034E0939FF7
:10043000A0011124422BA62FA170B0E094E0AA0FD6
:10044000BB1F9A95E1F74A2BE82FE170F0E025E019
:10045000EE0FFF1F2A95E1F7E42BEDB901700EB9FD
:100460000F9108958FB9779BFECF8FB1089510BC7F
:1004700083E389B98AB188618AB980B5866880BD0D
:100480000895CF93C82F8A3011F48DE0FADF5D9B79
:10049000FECFCCB9CF9108955F9BFECF8CB108956C
:1004A000CF93DF93CDB7DEB76C970FB6F894DEBF6E
:1004B0000FBECDBFE1E7F0E0CE010F9693838283BC
:1004C0000E97918380836C960FB6F894DEBF0FBEB3
:1004D000CDBFDF91CF910895DF92EF92FF920F93FE
:1004E0001F93CF93DF9300D000D0CDB7DEB7BA9A79
:1004F00000E023E040E061E080E08EDFC29A1AE095
:100500008FEFB0DF1150E1F740E050E0BA0180E436
:100510000BD4813009F07DC04AEA51E060E070E020
:1005200088E402D4813069F58E010F5F1F4F780196
:1005300024E0D22ED00E8FEF95DFF70181937F015B
:10054000DE12F9CF8B81813009F063C08C818A3A49
:1005500009F05FC090E1E92E97E2F92E40E050E00B
:1005600060E070E489EEE0D3882369F187EC90E0E5
:100570000197F1F700C0000091E0E91AF10871F766
:1005800048C040E050E0BA0189EECED3823018F086
:1005900011E001E402C012E009EE80E1E82E87E2FA
:1005A000F82E40E050E0BA01802FBED3882349F1F5
:1005B00087EC90E00197F1F700C0000091E0E91AA4
:1005C000F10879F726C040E050E0BA018AE7ACD3E1
:1005D00081111FC08FEF46DFF80181938F01DE127A
:1005E000F9CF898186FD02C014E001C01CE01093A0
:1005F0006E00C29A8FEF36DF81E0112361F080E058
:100600000AC040E052E060E070E080E58DD38823CE
:1006100071F310E0ECCF0F900F900F900F90DF91DF
:10062000CF911F910F91FF90EF90DF900895CF929F
:10063000DF92EF92FF920F931F93CF93DF937C0192
:10064000690180916E0083FD07C089E0440F551F4A
:10065000661F771F8A95D1F781E566D3882311F04D
:10066000C1E02BC0C0E4DCE98FEFFCDE8F3F19F462
:100670002197D1F7F5CF8E3F99F7C2E0D2E0C01BAA
:10068000D10BCC19DD09C114D10421F4E114F1041A
:1006900039F40EC08FEFE6DE81E0C81AD108F3CF3F
:1006A0008FEFE0DEF70181937F0101501109C1F75F
:1006B0008FEFD8DE2197E1F7C0E0C29A8FEFD2DE4C
:1006C0008C2FDF91CF911F910F91FF90EF90DF90D2
:1006D000CF9008954F925F926F927F928F929F92E8
:1006E000AF92BF92EF92FF920F931F93CF93DF933E
:1006F000CDB7DEB7A8970FB6F894DEBF0FBECDBF5B
:100700001092700010926F00009709F4C5C07C0130
:10071000E3DE80FDC3C040E050E0BA01CE010196A7
:1007200024D48130E9F400E110E02EEB31E040E028
:1007300050E0BA01CE0101967ADF882311F081E002
:10074000AEC08D81811102C087E0A9C089849A84DE
:10075000AB84BC84B501A401CE01019606D403C0CC
:10076000812C912C5401833051F38111EDCF04E29F
:1007700010E02DE030E0B501A401CE01019657DF75
:100780008111DDCF2A853B8540E050E02115310500
:100790004105510521F4288D398D4A8D5B8DAC8141
:1007A000B0E0E1D46DA37EA38FA398A70A811B813B
:1007B00020E030E0800E911EA21EB31ED7011896D5
:1007C0008D929D92AD92BC921B97498112964C934B
:1007D00012974D805E8015965C924E9214978F8191
:1007E0009885A0E0B0E00097A105B10521F48C89BF
:1007F0009D89AE89BF8954E0569447945A95E1F794
:10080000612C712C801B910BA20BB30B0DA11EA1AF
:100810002FA138A5801B910BA20BB30BBC01CD01FE
:100820006419750986099709242F30E040E050E0EB
:10083000A4D4DA01C9010296A11DB11DF701978365
:100840008683DA01C901855F9F40A109B10981153D
:10085000904FA105B10508F077CF82E0D7018C93C6
:100860000DA11EA12FA138A5800E911EA21EB31EA0
:100870001C968D929D92AD92BC921F97840C951CF4
:10088000A61CB71CF701808A918AA28AB38A1182BA
:10089000F0927000E0926F0080E001C082E0A896C4
:1008A0000FB6F894DEBF0FBECDBFDF91CF911F9181
:1008B0000F91FF90EF90BF90AF909F908F907F909F
:1008C0006F905F904F9008950F931F93CF93DF9396
:1008D000CDB7DEB7E8970FB6F894DEBF0FBECDBF39
:1008E00000916F00109170000115110549F1AC01E4
:1008F000F8011182CE01819698AB8FA7BE016F5F80
:100900007F4F0C9667D381111EC089818823D1F057
:100910008C8584FD17C08B8D9C8DF801958F848FFD
:100920008D8D9E8DAF8DB8A1808F918FA28FB38F4B
:10093000148A158A168A178A81E0818380E003C0B1
:1009400086E001C083E0E8960FB6F894DEBF0FBEE4
:10095000CDBFDF91CF911F910F9108954F925F927C
:100960006F927F928F929F92AF92BF92CF92DF92BF
:10097000EF92FF920F931F93CF93DF934C016B0184
:100980005A01C0916F00D0917000FA01118210825B
:10099000209709F493C0898180FF92C0888D998D3A
:1009A000AA8DBB8D4C895D896E897F89841B950BCF
:1009B000A60BB70BA60160E070E084179507A607A9
:1009C000B70708F46C013401412C32E0532EC114F6
:1009D000D10409F46EC08C899D89AE89BF89AC01B0
:1009E000BD01517066277727452B462B472B79F59C
:1009F000FA80FA94AC01BD0129E076956795579588
:100A000047952A95D1F7F42281F4892B8A2B8B2BD9
:100A100019F48C8D9D8D03C08E8D9F8D0ED28230EA
:100A2000910508F448C09F8F8E8F8E8D9F8DB7D112
:100A30006115710581059105F1F1DC01CB018F0D87
:100A4000911DA11DB11D88A399A3AAA3BBA32C89A5
:100A50003D893170C201821B930B76018C159D0577
:100A600008F47C0148A159A16AA17BA181149104D9
:100A700011F0C30102C080E090E08701D8DD811150
:100A80001AC08C899D89AE89BF898E0D9F1DA11DBD
:100A9000B11D8C8B9D8BAE8BBF8B6E0C7F1CCE18CB
:100AA000DF08F50180819181E80EF91EF182E08274
:100AB0008ECF80E006C0198281E003C086E001C0CD
:100AC00085E0DF91CF911F910F91FF90EF90DF9024
:100AD000CF90BF90AF909F908F907F906F905F90DE
:100AE0004F9008950F931F93CF93DF93CDB7DEB749
:100AF000AC970FB6F894DEBF0FBECDBF20916F004C
:100B000030917000232B01F1AB018C01CE01819655
:100B1000F80193838283BE016F5F7F4FC8015AD271
:100B200081110FC08981882351F08C8584FD02C01A
:100B300084E00BC08B8D9C8DF80195838483C80164
:100B400050D1833011F4F4CF86E0AC960FB6F89410
:100B5000DEBF0FBECDBFDF91CF911F910F910895E2
:100B6000CF92DF92EF92FF920F931F93CF93DF9379
:100B7000CDB7DEB7AC970FB6F894DEBF0FBECDBFD2
:100B800020916F0030917000232B09F4B1C06B01EC
:100B90007C01CE018196D70113969C938E93129778
:100BA0006115710519F4C7011CD1AFC093E0D701DD
:100BB00018964D915D916D917C911B974115510552
:100BC0006105710511F1F701208131812F70332703
:100BD00085E0220F331F8A95E1F700E210E0CE0195
:100BE000019625DD811186C08981882309F484C09E
:100BF0009C85853E21F08E3211F093FF11C0C70114
:100C000056D1982F882399F278C0892F992341F0E3
:100C1000F7011086118612861386933009F06FC093
:100C20008601075F1F4FD70118964D915D916D9119
:100C30007C911B97452B462B472B09F44AC09E01FC
:100C40002F5F3F4FF6017196D9018D919D01803242
:100C500071F0853009F485EE0F5F1F4FA8014150F8
:100C60005109DA018C930E171F0771F701C0F801C3
:100C70008985803299F09EE290839F012E5F3F4FDD
:100C800081838A85803231F02F5F3F4F82838B854D
:100C9000803211F4F90102C0838334968C85D60129
:100CA00018968C9318974D8D5E8D6F8D78A14D930E
:100CB0005D936D937C931397898D9A8D15969C9374
:100CC0008E9314978F89988D17969C938E93169771
:100CD0008F01F8011082C701EAD08330B1F4D70147
:100CE00018961D921D921D921C921B9780E00DC0BC
:100CF00086E00BC091E001C093E0892F89CF91116C
:100D000004C08601075F1F4FE4CFAC960FB6F8947E
:100D1000DEBF0FBECDBFDF91CF911F910F91FF902E
:100D2000EF90DF90CF900895FF920F931F93CF9392
:100D3000DF93C82FD42F152F062FF72E87FF08C05B
:100D400040E050E0BA0187E7EFDF823010F5CF775F
:100D5000C29A8FEF87DBC2988FEF84DB8C2F82DB08
:100D60008F2D80DB802F7EDB812F7CDB8D2F7ADB4C
:100D7000C03421F0C83421F487E803C085E901C0FC
:100D800081E070DBCAE08FEF6DDB87FF02C0C150EE
:100D9000D1F7DF91CF911F910F91FF9008950F939D
:100DA0001F93E0916F00F09170009C012250310977
:100DB00046815781425051092417350760F4A281BA
:100DC000B0E0C5D10089118922893389600F711F74
:100DD000821F931F03C060E070E0CB011F910F9151
:100DE0000895CF93DF93FC01A0916F00B091700044
:100DF000118210828481958181309105D1F01696FF
:100E00002D913C9117978217930798F4EF019783E0
:100E10008683009711F0C3DF06C01C966D917D910B
:100E20008D919C911F97688779878A879B8780E03F
:100E300001C081E0DF91CF9108950F931F93CF936D
:100E4000DF9300D000D0CDB7DEB7E0916F00F09116
:100E500070008230910500F1268137818217930757
:100E6000D8F420812230C1F49C013327220F331F94
:100E7000892F99274085518562857385480F591FB1
:100E8000611D711D02E010E0CE010196D0DB8111E1
:100E900003C089819A8102C081E090E00F900F9099
:100EA0000F900F90DF91CF911F910F910895EF92C6
:100EB000FF920F931F93CF93DF93EC01E0906F00AD
:100EC000F0907000088119810F5F1F4F11F483E0CB
:100ED00045C0488559856A857B8541155105610561
:100EE0007105A9F3C8018F709927892B91F54F5F80
:100EF0005F4F6F4F7F4F488759876A877B878E8107
:100F00009F81F701009731F48481958108171907B3
:100F1000F0F61FC0228130E021503109A80164E0C1
:100F2000569547956A95E1F724233523232B89F4B9
:100F300084DF8230910588F0F7012681378182179E
:100F4000930728F69F838E832ADF688779878A87AD
:100F50009B871983088380E001C081E0DF91CF91F6
:100F60001F910F91FF90EF900895CF92DF92EF9233
:100F7000FF920F931F93CF93DF93EC016A017B01E4
:100F800002E010E02EEF31E052DB811115C08881C4
:100F9000998185359A4A91F426E330E0B701A6019C
:100FA000CE0145DB81110CC081E0288139812634D6
:100FB000314439F480E005C083E003C082E001C021
:100FC00081E0DF91CF911F910F91FF90EF90DF9023
:100FD000CF9008959F92AF92BF92CF92DF92EF92FF
:100FE000FF920F931F93CF93DF93EC016B01242F9C
:100FF000952FDA018D91AD018032C9F3E22EF92EE1
:101000008F3219F4BFEFEB1AFB0A1D821C82F70125
:101010008081813238F090E2992E5601FBE0AF0ECC
:10102000B11C4AC0CE01DDDED6011C9284C090E026
:1010300080E028E031E0380FD701A80FB11D8C9176
:10104000813208F044C0E30EF11C91E0813208F0D7
:1010500090E09387CE01C5DE811158C02881398187
:101060002F70332785E0220F331F8A95E1F74885DB
:1010700059856A857B8500E210E0C601D8DA8111C6
:101080004EC0F6018081882309F442C0438543FDA8
:101090003AC06A817B819B01EA15FB0561F5FB0182
:1010A000838581113EC044FF3EC0D6015A968D9182
:1010B0009C915B979D838C83EA81FB81DF01CF014B
:1010C0000B96A817B90709F4B2CF9D92FACF8F32C9
:1010D00009F4B9CF8E3249F1921708F0B4CF4FE935
:1010E000480F4A3108F48052DF01A90FB11D8C93DB
:1010F0009F5F832F9FCF8191D9015D919D0190E0EA
:10110000851B910949F2CE01D2DEA6CF833099F436
:10111000EA81FB818385882331F083E00CC081E084
:101120000AC080E008C084E006C0283009F08BCFF8
:1011300098E02BE0DECFDF91CF911F910F91FF90D0
:10114000EF90DF90CF90BF90AF909F900895A29FB7
:10115000B001B39FC001A39F01D0B29F700D811D4C
:101160001124911D0895F3DFA59F900DB49F900D5C
:10117000A49F800D911D11240895A1E21A2EAA1B8F
:10118000BB1BFD010DC0AA1FBB1FEE1FFF1FA21737
:10119000B307E407F50720F0A21BB30BE40BF50B34
:1011A000661F771F881F991F1A9469F760957095BD
:1011B000809590959B01AC01BD01CF010895A0E001
:1011C000B0E0E4EEF8E08DC2AE014B5F5F4FFA0194
:1011D00061917191AF01809173009091740002D080
:1011E000E2E09BC2ACE0B0E0E7EFF8E06AC27C016D
:1011F0006B018A01FC0117821682838181FFB0C1D5
:10120000CE0101964C01F7019381F60193FD859182
:1012100093FF81916F01882309F49EC1853239F4CF
:1012200093FD859193FF81916F01853221F4B70180
:1012300090E0B1D1E8CF512C312C20E02032A0F445
:101240008B3269F030F4803259F0833269F42061D6
:101250002CC08D3239F0803339F4216026C02260F1
:10126000246023C0286021C027FD27C030ED380F3F
:101270003A3078F426FF06C0FAE05F9E300D112464
:10128000532E13C08AE0389E300D1124332E206275
:101290000CC08E3221F426FD5FC1206406C08C365E
:1012A00011F4206802C0883641F4F60193FD85915F
:1012B00093FF81916F018111C1CF982F9F7D95542C
:1012C000933028F40C5F1F4FFFE3F9830DC0833682
:1012D00031F0833771F0833509F057C021C0F80130
:1012E000808189830E5F1F4F44244394512C540105
:1012F00014C03801F2E06F0E711CF801A080B180BB
:1013000026FF03C0652D70E002C06FEF7FEFC501BF
:101310002C8736D12C0183012C852F77222E16C0E5
:101320003801F2E06F0E711CF801A080B18026FF39
:1013300003C0652D70E002C06FEF7FEFC5012C8701
:1013400014D12C012C852068222E830123FC19C086
:10135000832D90E048165906A0F4B70180E290E092
:101360001AD13A94F5CFF50127FC859127FE81919A
:101370005F01B70190E00FD131103A94F1E04F1ABC
:1013800051084114510479F7DEC0843611F08936D2
:1013900031F5F80127FF07C0608171818281938157
:1013A0000C5F1F4F08C060817181882777FD809591
:1013B000982F0E5F1F4F2F76722E97FF09C09095C2
:1013C0008095709561957F4F8F4F9F4F2068722E4B
:1013D0002AE030E0A40117D1A82EA81843C0853711
:1013E00029F42F7EB22E2AE030E025C0F22FF97FBB
:1013F000BF2E8F36C1F018F4883579F0ADC0803734
:1014000019F0883721F0A8C02F2F2061B22EB4FE2A
:101410000DC08B2D8460B82E09C024FF0AC09F2FF9
:101420009660B92E06C028E030E005C020E130E02B
:1014300002C020E132E0F801B7FE07C0608171818F
:10144000828193810C5F1F4F06C06081718180E0B3
:1014500090E00E5F1F4FA401D6D0A82EA818FB2D38
:10146000FF777F2E76FE0BC0372D3E7FA51450F4FC
:1014700074FE0AC072FC08C0372D3E7E05C0BA2C2F
:10148000372D03C0BA2C01C0B52C34FF0DC0FE01AE
:10149000EA0DF11D8081803311F4397E09C032FFDD
:1014A00006C0B394B39404C0832F867809F0B39434
:1014B00033FD12C030FF06C05A2CB31418F4530C7D
:1014C0005B18B32CB31460F4B70180E290E03C8762
:1014D00062D0B3943C85F6CFB31410F43B1801C02E
:1014E000312C34FF11C0B70180E390E03C8753D02A
:1014F0003C8532FF16C031FD03C088E790E002C092
:1015000088E590E0B7010CC0832F867851F031FF59
:1015100002C08BE201C080E237FD8DE2B70190E0AE
:101520003AD0A51430F4B70180E390E034D05A9457
:10153000F8CFAA94F401EA0DF11D8081B70190E083
:101540002AD0A110F6CF332009F45DCEB70180E296
:1015500090E021D03A94F7CFF7018681978102C0BD
:101560008FEF9FEF2C96E2E1C8C0FC01059061501F
:1015700070400110D8F7809590958E0F9F1F0895A9
:10158000FC016150704001900110D8F78095909552
:101590008E0F9F1F08950F931F93CF93DF93FB012F
:1015A000238121FD03C08FEF9FEF28C022FF16C0CB
:1015B00046815781248135814217530744F4A08125
:1015C000B1819D012F5F3F4F318320838C93268112
:1015D00037812F5F3F4F3783268310C0EB01092FE0
:1015E000182F0084F185E02D0995892BE1F68E8175
:1015F0009F8101969F838E83812F902FDF91CF91C2
:101600001F910F910895FA01AA27283051F1203136
:1016100081F1E8946F936E7F6E5F7F4F8F4F9F4F86
:10162000AF4FB1E03ED0B4E03CD0670F781F891FC8
:101630009A1FA11D680F791F8A1F911DA11D6A0F96
:10164000711D811D911DA11D20D009F468943F9149
:101650002AE0269F11243019305D3193DEF6CF0148
:101660000895462F4770405D4193B3E00FD0C9F70E
:10167000F6CF462F4F70405D4A3318F0495D31FD7B
:101680004052419302D0A9F7EACFB4E0A6959795CE
:10169000879577956795BA95C9F7009761057105A4
:1016A00008959B01AC010A2E0694579547953795EE
:1016B0002795BA95C9F7620F731F841F951FA01D48
:1016C00008952F923F924F925F926F927F928F92E6
:1016D0009F92AF92BF92CF92DF92EF92FF920F93C1
:1016E0001F93CF93DF93CDB7DEB7CA1BDB0B0FB6CB
:1016F000F894DEBF0FBECDBF09942A883988488888
:101700005F846E847D848C849B84AA84B984C8841D
:10171000DF80EE80FD800C811B81AA81B981CE0F14
:10172000D11D0FB6F894DEBF0FBECDBFED010895F9
:1018000012C02CC02BC02AC029C028C027C026C0A7
:1018100025C024C023C022C021C020C01FC01EC0BC
:101820001DC01CC01BC011241FBECFE5D4E0DEBF0D
:10183000CDBF10E0A0E6B0E0E0E8F8E102C005901E
:101840000D92AE36B107D9F710E0AEE6B0E001C0B8
:101850001D92A737B107E1F702D010C0D1CF8FEFAB
:1018600081BB82B3809582BB2FE788E391E0215052
:1018700080409040E1F700C00000F3CFF894FFCF24
:0E1880006D795F66756E633A2025640A00007C
:0400000300001800E1
:00000001FF
