:1000000012C02CC02BC02AC029C028C027C026C0BF
:1000100025C024C023C022C021C020C01FC01EC0D4
:100020001DC01CC01BC011241FBECFE5D4E0DEBF25
:10003000CDBF10E0A0E6B0E0EEE0F4E002C0059035
:100040000D92A636B107D9F710E0A6E6B0E001C0E0
:100050001D92AF36B107E1F702D0D7C1D1CFCF9310
:10006000DF93CDB7DEB76C970FB6F894DEBF0FBE47
:10007000CDBF8EE0DE011F96FD01282F11922A953B
:10008000E9F792E09A8B28EA30E0388F2F8B9E01B7
:100090002F5F3F4FF90111928A95E9F781E08C8338
:1000A00083EB90E09C878B87B0936C00A0936B00F0
:1000B00030936A00209369008CEF81BBC5D080FD2E
:1000C00002C019E701C01EE60CEF92B3902792BB65
:1000D00080E690E06AD1FFEF24E38CE0F15020400D
:1000E0008040E1F700C0000060E070E0812F30D078
:1000F00060E070E087E62CD0E8CF0F9397B398626A
:1001000097BBBC98C49A23702064942F937034E0FA
:10011000939FA0011124422BA62FA170B0E094E080
:10012000AA0FBB1F9A95E1F74A2BE82FE170F0E088
:1001300025E0EE0FFF1F2A95E1F7E42BEDB90170E2
:100140000EB90F9108958FB9779BFECF8FB10895A7
:10015000CF93C82F8A3011F48DE0FADF5D9BFECF7C
:10016000CCB9CF9108955F9BFECF8CB10895FF92DB
:100170000F931F93CF93DF93C82FD42F152F062FE4
:10018000F72E87FF08C040E050E0BA0187E7EFDFB5
:10019000823010F5CF77C29A8FEFD5DFC2988FEFFC
:1001A000D2DF8C2FD0DF8F2DCEDF802FCCDF812FC1
:1001B000CADF8D2FC8DFC03421F0C83421F487E8AE
:1001C00003C085E901C081E0BEDFCAE08FEFBBDF7D
:1001D00087FF02C0C150D1F7DF91CF911F910F91DE
:1001E000FF9008951F93CF93DF93C0916600D09145
:1001F0006700CE3F8FEFD80721F080E0A4DF219782
:10020000F8CF8FEFA0DF8F71853011F011E014C0AF
:10021000C8E8D3E18FEF97DF8F3F51F02097B1F31C
:1002200087EC90E00197F1F700C000002197F2CF32
:1002300011E0CD2B09F010E0C29A8FEF84DF812FFF
:10024000DF91CF911F910895DF92EF92FF920F936C
:100250001F93CF93DF9300D000D0CDB7DEB7BA9A0B
:1002600080916800882311F0C29BBCDF00E023E08E
:1002700040E061E080E041DFC29A1AE08FEF63DF87
:100280001150E1F740E050E0BA0180E470DF8130C6
:1002900009F07DC04AEA51E060E070E088E467DF81
:1002A000813069F58E010F5F1F4F780124E0D22E57
:1002B000D00E8FEF48DFF70181937F01DE12F9CF77
:1002C0008B81813009F063C08C818A3A09F05FC06C
:1002D00090E1E92E97E2F92E40E050E060E070E412
:1002E00089EE45DF882369F187EC90E00197F1F70B
:1002F00000C0000091E0E91AF10871F748C040E041
:1003000050E0BA0189EE33DF823018F011E001E4E9
:1003100002C012E009EE80E1E82E87E2F82E40E00C
:1003200050E0BA01802F23DF882349F187EC90E069
:100330000197F1F700C0000091E0E91AF10879F7A0
:1003400026C040E050E0BA018AE711DF81111FC0EA
:100350008FEFF9DEF80181938F01DE12F9CF8981E9
:1003600086FD02C014E001C01CE010936800C29A30
:100370008FEFE9DE81E0112361F080E00AC040E008
:1003800052E060E070E080E5F2DE882371F310E077
:10039000ECCF0F900F900F900F90DF91CF911F91A6
:1003A0000F91FF90EF90DF9008950F931F93CF93DD
:1003B000DF93E0916B00F0916C00238121FF1BC063
:1003C0008C01D0E0C0E0F80181918F0160916B0059
:1003D00070916C00DB011896ED91FC9119978823C0
:1003E00031F00995892B79F3DFEFCFEFECCF8AE07D
:1003F0000995892B19F08FEF9FEF02C08D2F9C2F4D
:0E040000DF91CF911F910F910895F894FFCFD7
:06040E0074657374000028
:00000001FF
