:100AF6000F9397B3986297BBBC98C49A23702064EF
:100B0600942F937034E0939FA0011124422BA62FBB
:100B1600A170B0E094E0AA0FBB1F9A95E1F74A2BAB
:100B2600E82FE170F0E025E0EE0FFF1F2A95E1F7D0
:100B3600E42BEDB901700EB90F9108958FB9779B2B
:060B4600FECF8FB10895FF
:1018000012C02CC02BC02AC029C028C027C026C0A7
:1018100025C024C023C022C021C020C01FC01EC0BC
:101820001DC01CC01BC011241FBECFE5D4E0DEBF0D
:10183000CDBF10E0A0E6B0E0ECE3FAE102C0059015
:101840000D92A036B107D9F710E0A0E6B0E001C0D4
:101850001D92A136B107E1F702D0EEC0D1CF8FEFD4
:1018600081BB3FD082B3809582BBFCCFFF920F93A8
:101870001F93CF93DF93C82FD42F152F062FF72E4A
:1018800087FF08C040E050E0BA0187E7EFDF823011
:1018900010F5CF77C29A8FEF54D9C2988FEF51D9F4
:1018A0008C2F4FD98F2D4DD9802F4BD9812F49D9CE
:1018B0008D2F47D9C03421F0C83421F487E803C004
:1018C00085E901C081E03DD9CAE08FEF3AD987FFB1
:1018D00002C0C150D1F7DF91CF911F910F91FF90BE
:1018E0000895DF92EF92FF920F931F93CF93DF93B0
:1018F00000D000D0CDB7DEB7BA9A00E023E040E0D8
:1019000061E080E0F8D8C29A1AE08FEF1AD911503E
:10191000E1F740E050E0BA0180E4A8DF813009F04F
:101920007DC04AEA51E060E070E088E49FDF8130EA
:1019300069F58E010F5F1F4F780124E0D22ED00E83
:101940008FEFFFD8F70181937F01DE12F9CF8B81F2
:10195000813009F063C08C818A3A09F05FC090E160
:10196000E92E97E2F92E40E050E060E070E489EE65
:101970007DDF882369F187EC90E00197F1F700C0E3
:10198000000091E0E91AF10871F748C040E050E02A
:10199000BA0189EE6BDF823018F011E001E402C079
:1019A00012E009EE80E1E82E87E2F82E40E050E0F8
:1019B000BA01802F5BDF882349F187EC90E0019723
:1019C000F1F700C0000091E0E91AF10879F726C0AC
:1019D00040E050E0BA018AE749DF81111FC08FEF74
:1019E000B0D8F80181938F01DE12F9CF898186FD8D
:1019F00002C014E001C01CE010936000C29A8FEF97
:101A0000A0D881E0112361F080E00AC040E052E0FC
:101A100060E070E080E52ADF882371F310E0ECCF0E
:101A20000F900F900F900F90DF91CF911F910F911A
:0C1A3000FF90EF90DF900895F894FFCF36
:0400000300001800E1
:00000001FF
